:020000040800F2
:1000000070150020E1010008ED1F00089917000895
:10001000591F0008210300084D27000800000000B8
:10002000000000000000000000000000490100087E
:10003000F1030008000000008D01000855250008AC
:10004000FB010008FB010008FB010008FB010008A0
:10005000FB010008FB010008FB010008FB01000890
:10006000FB010008FB010008FB010008FB01000880
:10007000FB010008FB010008FB010008FB01000870
:10008000FB010008FB010008FB010008FB01000860
:10009000FB010008FB010008FB010008FB01000850
:1000A000FB010008FB010008FB010008FB01000840
:1000B000FB010008FB010008FB010008FB01000830
:1000C000FB010008FB010008FB010008FB01000820
:1000D000FB010008FB010008FB010008FB01000810
:1000E000FB010008FB010008FB010008FB01000800
:1000F000FB010008FB010008FB010008FB010008F0
:10010000FB010008FB010008FB010008FB010008DF
:10011000FB010008FB010008E1250008ED250008AF
:10012000FB010008FB010008FB010008FB010008BF
:10013000DFF810D000F08AF8004800474128000896
:10014000AFF3008070150020224B19680868B0E8F2
:10015000F00F80F30988BFF36F8F4FF0000080F33A
:1001600011884EF00D0E7047000000000648006830
:10017000006880F3088862B661B6BFF34F8FBFF3A3
:100180006F8F00DF00BF00BF08ED00E0EFF30980D4
:10019000BFF36F8F0F4B1A6820E9F00F106008B59E
:1001A0004FF0500080F31188BFF34F8FBFF36F8F74
:1001B00002F034FF4FF0000080F31188BDE80840E2
:1001C00019680868B0E8F00F80F30988BFF36F8FF3
:1001D000704700BF1C000020EFF30580704700004F
:1001E0000648804706480047FEE7FEE7FEE7FEE7D1
:1001F000FEE7FEE7FEE7FEE7FEE7FEE7DF25000895
:100200003101000840EA01039B0703D009E008C957
:10021000121F08C0042AFAD203E011F8013B00F8CB
:10022000013B521EF9D27047D2B201E000F8012B17
:10023000491EFBD270470022F6E710B513460A4666
:1002400004461946FFF7F0FF204610BD064C074D47
:1002500006E0E06840F0010394E807009847103496
:10026000AC42F6D3FFF768FFE83400080835000811
:100270004FF4FA6002F00AFB154D144CDFF854807D
:100280004FF480764FF4FA796F0400BFD4E904107C
:10029000084317D100223146284600F0D1F9012247
:1002A0003146284600F0CCF9484602F0EFFA002229
:1002B0003146284600F0C4F9C8F80070BFF34F8FEC
:1002C000BFF36F8F012002F0E1FADFE78400002026
:1002D0000008014004ED00E002F01AF94FF0FF348D
:1002E0002146012002F03AFD08B101F037FE01205D
:1002F00002F0CCFAF4E70000084C4FF4FA7500BFA6
:1003000000F07AF8206820B100230222194602F09A
:100310005FFF284602F0BAFAF2E700000000002072
:10032000FEE700F00F01000900EB800001EB400048
:10033000C0B2704710B5022000F00EF8BDE81040C2
:1003400000F03F00FFF7EDBF10B5012000F004F80A
:10035000BDE81040FFF7E5BF31B582B0094D4FF45D
:100360007A740094012302AAD021286800F060FB6F
:100370000094012301AAD021286800F031FA9DF8E9
:1003800004003EBDB400002010B50020FFF7E4FFDC
:10039000BDE8104000F07F00FFF7C3BF02490860CE
:1003A000002000F003B80000B400002010B508B130
:1003B000802400E000240020FFF7CEFF00F07F0142
:1003C0002143BDE810400020AFF300801CB502239C
:1003D0008DF804004FF47A70009004488DF80510F1
:1003E00001AAD021006800F023FB1CBDB40000204E
:1003F000704772B6FEE7000010B5FFF79BFF044C94
:10040000E070FFF7A1FF2071FFF7BEFF607110BD24
:100410008400002070B5044600F018F90546601C01
:1004200002D004480078044400F010F9401BA042B8
:10043000FAD370BD0C0000202DE9F84FDFF8C89109
:100440000024A9F1040B23460F2709F1040AABF19C
:10045000040ED1E00125A54006EA0502AA4276D1A4
:10046000DFF8A8C14E68A6EB0C0866452BD00DDC62
:10047000032E34D005DC36B3012E19D0022E2FD135
:100480001BE0112E16D0122E2AD119E0B8F5881FC4
:1004900019D006DCB8F5803F15D0B8F5801F1FD104
:1004A00011E0B8F5001F0ED0B8F5041F18D10AE00E
:1004B000CB6815E0CB681B1D12E0CB6808330FE05A
:1004C000CB680C330CE08B682BB1012B4FF0080389
:1004D00003D0456104E0042302E0056100E000234D
:1004E000FF2A01D8064601E000F104064FEA840520
:1004F00001D9A5F12005D6F8008007FA05FC28EA05
:100500000C0803FA05F548EA0508C6F800804D68AE
:10051000ED0070D53E4DAE6946F00106AE61AD69A5
:1005200024F0030605F0010500953A4D06EB050C95
:10053000DCF80850A607360F07FA06F825EA080582
:10054000DFF8D480404503D14FF0000825E052E0A9
:10055000DFF8C880404502D14FF001081DE0DFF808
:10056000C080404502D14FF0020816E0DFF8B480A9
:10057000404502D14FF003080FE0DFF8AC80404562
:1005800002D14FF0040808E0DFF8A080404502D116
:100590004FF0050801E04FF0060808FA06F848EAAF
:1005A0000508CCF808804D68D9F80060ED024D468A
:1005B00001D5164300E096432E604D68DAF80060DE
:1005C000AD02554601D5164300E096432E604D68B6
:1005D000DBF80060AD035D4601D5164300E09643AD
:1005E0002E604D68DEF80060ED03754601D51643B8
:1005F00000E096432E60641C0A681646E2407FF4D1
:1006000029AFBDE8F88F0000080401400000111078
:10061000001002400000014000080140000C0140B1
:10062000001001400014014000180140001C01406E
:10063000C26821EA02030A4043EA024101617047AD
:100640000AB1016170470904FBE7000001488068B6
:10065000704700000C00002070B5040025D094F80D
:100660003D00002520B984F83C50204600F00EFBE8
:10067000242084F83D002068016821F00101016018
:100680002068016841F4004101602068016821F49C
:100690000041016000F0A8FC4D4A6168914201D818
:1006A0004C4900E04C49884201D2012070BD4B49C1
:1006B0002368B0FBF1F15E6826F03F060E435E60F2
:1006C0006368934206D94FF4967359434FF47A7393
:1006D000B1FBF3F12368491C1E6A26F03F06314343
:1006E00019626168914210D84900401EB0FBF1F2D6
:1006F000521CC2F30B02042A01D2042022E0B0FBF8
:10070000F1F0401CC0F30B001CE0A268F2B301EB57
:10071000C10303EB0116431EB3FBF6F35B1C43F46A
:1007200080431B0549D092B301EBC10202EB0111DA
:10073000401EB0FBF1F0401CC0F30B0040F48040C1
:1007400040F400402168CA694CF6FF739A43104395
:10075000C861D4E9071001432068026822F0C00292
:1007600011430160D4E9030101432068826848F223
:10077000FF339A4311438160D4E90501084321689E
:10078000CA6822F0FF021043C86001E00EE016E0E4
:100790002068016841F0010101602564202084F88F
:1007A0003D00256384F83E50002070BD01EB4106FA
:1007B000431EB3FBF6F35B1CB3E70120C2E701EB7A
:1007C0004101401EB0FBF1F0401CC0F30B00B7E745
:1007D000A086010080841E0000093D0040420F00F9
:1007E0002DE9F84F0025DDF82890984617468A46EF
:1007F00004460095FFF72AFF064694F83D0020289E
:100800007AD11923012286492046009601F020F969
:100810000028F5D194F83C0001286DD0012084F81F
:100820003C0020680168C90703D1016841F001015B
:1008300001602068016821F400610160222084F8D1
:100840003D00102084F83E0025646762A4F82A80E9
:10085000608D20857348E06233464A465146204603
:1008600000F0B2FF00287CD1208DDFF8BC8120276A
:1008700068B1012814D00228206801681ED041F414
:10088000806101602068416980690090BBE0206858
:10089000416981690091016841F400710160B2E031
:1008A0002068016821F48061016072B620684169A6
:1008B00081690091016841F400710AE041F400612E
:1008C000016072B62068416981690091016821F474
:1008D0008061016062B696E0032865D801280CD0DB
:1008E00002284B464FF000024146204600960BD0AE
:1008F00001F0AEF8A8BB0CE090E032464946204635
:1009000001F04CF968BB71E001F0A2F848BB72B687
:1009100033E02068016821F48061016072B62068CC
:100920000069616A0870606A401C6062208D401E28
:100930002085608D401E60853C4846F2A811006805
:10094000B0FBF1F0C0EBC00000EB80000090401E57
:10095000009007D020684069C04340070DD500983B
:10096000F5E727E044F8305F6773A573206940F02E
:100970002000206162B625731CE02068016841F404
:100980000071016020680069616A0870606A401C3B
:100990006062218D491E2185618D491E618562B687
:1009A00021680969017025E032464946204601F078
:1009B000F5F810B10120BDE8F88F20680069616A80
:1009C0000870606A401C6062208D401E81B22185E3
:1009D000608D401E608520684269D243520712D460
:1009E000032903D1016821F4806101602068006956
:1009F000616A0870606A401C6062208D401E20851C
:100A0000608D401E6085208D00287FF465AF84F8DE
:100A10003D7084F83E5084F83C50CCE70220CAE791
:100A2000020010000000FFFF040001001800002079
:100A30002DE9F84F1F4690468A460446DDF8289077
:100A4000FFF704FE054694F83D0020287FD11923C6
:100A5000012240492046009500F0FAFF002876D197
:100A600094F83C00012872D0012084F83C002068F2
:100A70000168C90703D1016841F0010101602068E4
:100A8000016821F400610160212084F83D001020FC
:100A900084F83E0000262664C4F824806785608DB3
:100AA00020852D48E0622B464A465146204600F0FC
:100AB00001FF90B9206841698069009036E02A46BC
:100AC0004946204601F0A2F850B1206C042804D118
:100AD0002068016841F4007101600120BDE8F88FD1
:100AE000606A216800780861606A401C6062618DFC
:100AF000491E6185218D491E89B22185226853696D
:100B0000DB435B070BD451B100781061606A401C75
:100B10006062608D401E6085208D401E20852A46C3
:100B20004946204600F068FF0028CED1208D0028DD
:100B3000C5D154F83D0B016841F4007101602020DB
:100B400004F81E09E67766770020C7E7FFE7022072
:100B5000C4E70000020010000000FFFF2DE9FF4F76
:100B600083B09A46DDE9119793460446DDF840804C
:100B7000FFF76CFD054694F83D0020287FD119232E
:100B8000012240492046009500F062FF002876D1FE
:100B900094F83C00012872D0012084F83C002068C1
:100BA0000168C90703D1016841F0010101602068B3
:100BB000016821F400610160212084F83D0040209B
:100BC00084F83E0000262664C4F82480A4F82A9005
:100BD000608D20852C48E062CDE9007553465A4669
:100BE0002046049900F0B4FE70B930E02A46394638
:100BF000204601F00BF858B1206C042804D120687D
:100C0000016841F400710160012007B0BDE8F08F78
:100C1000606A216800780861606A401C6062218D0A
:100C2000491E89B22185628D521E628522685369F0
:100C3000DB435B070BD469B100781061606A401C2C
:100C40006062208D401E2085608D401E6085208D55
:100C50000028CBD12A463946204600F0CDFE002898
:100C6000CAD154F83D0B016841F4007101602020A5
:100C700004F81E09E67766770020C6E7FFE7022042
:100C8000C3E70000020010000000FFFF10B586B0AF
:100C90000021009101910291039100680F4988425F
:100CA0001AD10F4CA06940F00800A061A069694604
:100CB00000F008000490C020009012200190032052
:100CC00003900848FFF7B8FBE06940F40010E061CA
:100CD000E06900F40010049006B010BD005400401C
:100CE00000100240000C0140024881680278114463
:100CF000816070470C000020074810B5016841F082
:100D000010010160032000F0A7F8002000F006F8B1
:100D100000F050F8002010BD0020024030B505461C
:100D20001F4887B0C16941F01001C161C06906A9BF
:100D300000F01000009001A800F036F90498B0B15E
:100D400000F052F940001749174AB0FBF1F117487B
:100D5000491E0260416040F2E7320021C0E90321F0
:100D60008160816100F056FB040003D015E000F0C3
:100D70003BF9E8E70D4800F099FB04000DD136205F
:100D800000F03CF8102D07D200222946362000F052
:100D900043F80748056000E0012407B0204630BD55
:100DA0000010024040420F000010004038040020B4
:100DB000100000200F4808B5816941F001018161F0
:100DC000816901F001010091C16941F08051C16167
:100DD000C069002200F0805000900F21901E00F0AA
:100DE0001BF80548416821F0E06141F00071416065
:100DF00008BD00000010024000000140002809DB8F
:100E000000F01F02012191404009800000F1E02024
:100E1000C0F8001170470000F0B40E4B1B680C4680
:100E2000C3F30223C3F10705042D00D90425191DBE
:100E3000072901D2002300E0DB1E012606FA05F196
:100E4000491E214099409E40761E16403143F0BC19
:100E500001F0D6BC0CED00E0064900F0070208687E
:100E60004FF6FF03184040EA0220034A104308608F
:100E7000704700000CED00E00000FA052DE9F04796
:100E80000F46050061D0434E306800F00700B842BD
:100E900009D2306820F0070038433060306800F035
:100EA0000700B84251D128683B4C810712D5400752
:100EB00003D5606840F4E06060602878000703D5DF
:100EC000606840F4605060606068A96820F0F000DD
:100ED000084360602878C00728D06868012810D0CF
:100EE0002168022810D0890700292EDA616821F0D4
:100EF000030101436160FFF7A9FB804641F2883995
:100F00000DE021688903EFE78901EDE7FFF79EFB1C
:100F1000A0EB0801494502D90320BDE8F0876068CD
:100F2000696800F00C00B0EB810FEFD1306800F081
:100F30000700B8420BD9306820F007003843306012
:100F4000306800F00700B84201D00120E5E72878BA
:100F5000400705D56068E96820F4E06008436060F8
:100F60002878000706D56068296920F4605040EAB7
:100F7000C100606000F058F86168084AC1F30311CD
:100F8000515CC8400649086006480068FFF7C6FE85
:100F90000020C2E70020024000100240A6340008F2
:100FA00018000020100000200F2202600C4A536835
:100FB00003F003034360536803F0F0038360536856
:100FC00003F4E063C36052684FF4E06303EAD202C3
:100FD00002610448006800F00700086070470000E4
:100FE000001002400020024004480549006849689A
:100FF000044AC1F30221515CC84070471800002028
:1010000000100240B63400080448054900684968E9
:10101000044AC1F3C221515CC84070471800002047
:1010200000100240B63400080E4A51680E4801F024
:101030000C03042B11D0082B0FD10C48C1F38343B0
:10104000C903C05C0AD55168084AC1F34041921EE9
:10105000515C054A5043B0FBF1F0704704494843E6
:10106000704700000010024000127A009634000819
:1010700000093D002DE9F84F040070D02078C04DE4
:10108000C00749D06868C0F38100012807D06868AC
:10109000C0F38100022809D16868C00306D528681A
:1010A000800339D560680028E7D035E06068B0F586
:1010B000803F0BD010B1B0F5A02F11D0286820F4DC
:1010C00080302860286820F4802002E0286840F4FE
:1010D00080302860606890B1FFF7B8FA06460AE0F1
:1010E000286840F480202860F0E700BFFFF7AEFAE0
:1010F000801B642873D828688003F7D50CE0FFF7BD
:10110000A5FA064605E000BFFFF7A0FA801B642899
:10111000F0D828688003F7D420789A4E80074FF0E3
:1011200001094FF0000839D5686810F00C0F07D09E
:101130006868C0F38100022809D16868C00306D43A
:101140002868800714D52069012808D110E020699B
:10115000B0B1C6F80090FFF779FA074605E00AE15A
:10116000FFF774FAC01B0228C4D828688007F7D597
:101170002868616920F0F80040EAC10028600DE0AD
:10118000C6F80080FFF762FA074604E0FFF75EFA50
:10119000C01B022823D828688007F7D420780007CE
:1011A0002CD57948A169D9B1C0F80090FFF74EFA63
:1011B000074604E0FFF74AFAC01B02280FD8686A06
:1011C0008007F7D571484FF4FA510068B0FBF1F091
:1011D000009000BF0098411E0091FAD20EE080E01E
:1011E000C0F80080FFF732FA074604E0FFF72EFA56
:1011F000C01B022875D8686A8007F7D4207840079A
:1012000060D5E8690027C00008D4E86940F0805044
:10121000E861E869012700F0805000905C480168AF
:10122000C90513D40168834641F480710160FFF75A
:101230000DFA824606E000BFFFF708FAA0EB0A00AD
:1012400064284ED8DBF80000C005F5D5E068012819
:101250000AD008B1052813D0286A20F001002862BE
:10126000286A20F0040002E0286A40F001002862A9
:10127000E06841F2883B98B1FFF7E8F982460BE05D
:10128000286A40F004002862EEE700BFFFF7DEF9AD
:10129000A0EB0A0159455AD8286A8007F6D50CE018
:1012A000FFF7D4F9824605E0FFF7D0F9A0EB0A0179
:1012B00059454CD8286A8007F6D41FB1E86920F058
:1012C0008050E861E06988B36968C1F3810102294F
:1012D00044D00228C6F8608004D0FFF7B7F904466E
:1012E00038E034E0FFF7B2F9074604E0FFF7AEF963
:1012F000C01B02282BD828688001F7D4206AB0F5DB
:10130000803F05D16868A16820F400300843686018
:10131000D4E908010843696821F47411084368603E
:10132000C6F86090FFF792F9044606E025E000BF9A
:10133000FFF78CF9001B022809D828688001F7D52F
:101340001BE000BFFFF782F9001B022802D903202F
:10135000BDE8F88F28688001F4D40EE00128F7D0AA
:101360006868226A00F48031914204D1616A00F415
:101370007010884201D00120EAE70020E8E7000071
:101380000010024000004242800442421800002047
:10139000007000407047704770B590F83C20012AFB
:1013A0002CD0012480F83C40022280F83D200368C4
:1013B0005A689D6822F070060A6832435A60104BE2
:1013C00002689A420ED00F4B9A420BD0B2F1804F76
:1013D00008D00D4B9A4205D00C4B9A4202D00C4BD0
:1013E0009A4204D1496825F080031943916080F83E
:1013F0003D40002180F83C10084670BD022070BDC1
:10140000002C01400034014000040040000800406E
:10141000000C004010B5040003D094F83D0010B15A
:1014200007E0012010BD002084F83C00204600F0B9
:101430001FF8022084F83D00211D206801F0DCF82F
:10144000012084F8460084F83E0084F83F0084F8C8
:10145000400084F8410084F8420084F8430084F896
:10146000440084F8450084F83D00002010BD0000D1
:1014700008B500680B49884212D10B48C16941F098
:101480002001C161C069002200F020000090052108
:101490003720FFF7C1FCBDE808403720FFF7AEBC9E
:1014A00008BD0000001400400010024090F83D10FC
:1014B000012901D001207047022180F83D10016808
:1014C000CA6842F00102CA6000680E4988420ED024
:1014D0000D4988420BD0B0F1804F08D00B498842AB
:1014E00005D00B49884202D00A49884204D181685C
:1014F00001F00701062903D0016841F001010160F4
:1015000000207047002C01400034014000040040DE
:1015100000080040000C004070472DE9F0410446EF
:101520000068C66805694FF00007A90713D5B10721
:1015300011D5F91E0161012020772068806980079C
:10154000204602D0FFF7E8FF04E000F07EF82046D6
:1015500000F07CF82777680716D5700714D5216846
:101560006FF004000861022020772068806910F481
:10157000407F204602D0FFF7CFFF04E000F065F87F
:10158000204600F063F82777280715D5300713D5D4
:1015900021686FF008000861042020772068C06986
:1015A0008007204602D0FFF7B7FF04E000F04DF8B7
:1015B000204600F04BF82777E80616D5F00614D53C
:1015C00021686FF010000861082020772068C0694A
:1015D00010F4407F204602D0FFF79EFF04E000F0A9
:1015E00034F8204600F032F82777E80708D0F007F3
:1015F00006D021686FF001000861204600F028F84D
:10160000280608D5300606D521686FF080000861ED
:101610002046FFF7BFFE680608D5700606D521688C
:101620006FF040000861204600F02CF8A8060AD5AB
:10163000B00608D521686FF0200008612046BDE89B
:10164000F041FFF7A8BEBDE8F08170477047000089
:1016500010B5044600680849884201D1FFF744FBF1
:1016600006492068884205D1BDE81040042104489D
:10167000FEF7DEBF10BD0000001000400014004067
:10168000000C0140704770B5040004D094F841008C
:10169000002510B106E0012070BD84F840502046BE
:1016A00000F024F8242084F841002068C16821F467
:1016B0000051C160204600F0EDFF2068016921F46F
:1016C000904101612068416921F02A01416120684F
:1016D000C16841F40051C1606564202084F8410074
:1016E00084F842006563002070BD000070B586B0CC
:1016F00000240094019402940394234E0368234928
:1017000002200322224DB34219D18B6943F4804356
:101710008B618B6903F4804304938B6943F004036A
:101720008B618969039201F0040104910102CDE902
:10173000001069462846FEF77FFE28151BE0154E6F
:10174000B3421FD1CB6943F40033CB61CB6903F4BF
:10175000003304938B6943F004038B61896903921E
:1017600001F0040104910421CDE9001069462846E6
:10177000FEF762FE0820CDE900046946284602947F
:10178000FEF75AFE06B070BD00380140001002405E
:101790000008014000440040FEE701684A69D24366
:1017A00052050FD46FF480624A61002140F8301F67
:1017B000202242738173026942F0040202610173C4
:1017C00001207047002070472DE9F84F0446C06A99
:1017D0001E4693460D4621680A6842F480620A60FC
:1017E000082807D0012805D010F5803F02D0206BD3
:1017F000112804D12068016841F4807101604FF024
:1018000001195B46002249462046009600F020F967
:101810004FF4007840B120680068C00501D5C4F8D5
:1018200040800320BDE8F88F2069DFF884A0B0F580
:10183000804F0FD00620216800EAD51747F0F0004E
:10184000086133465A460AF10601204600F048F97D
:1018500058BB03E0E8B240F001001CE02168E8B2A8
:10186000086133465A465146204600F039F9E0B93E
:101870002068416981690091016841F480710160CB
:101880005B46002249462046009600F0E1F8002819
:10189000C1D147F0F1002168086133465A465146EC
:1018A000204600F01DF90028BCD00120BAE7000056
:1018B00002000100F8B50446C06A1E460D461746F0
:1018C000082807D0012805D010F5803F02D0206BF2
:1018D000122804D12068016841F480710160134628
:1018E00000224FF001112046009600F0B1F840B1FF
:1018F00020680068C00502D54FF400702064032002
:10190000F8BD2069B0F5804F0ED00620216800EAAE
:10191000D51040F0F000086133463A460B492046A6
:1019200000F0DEF878B902E005F0FE0000E0E8B271
:1019300021680861054933463A46891F204600F070
:10194000CFF80028DCD00120F8BD0000080001001D
:101950002DE9F843044600680D46DDE90897016863
:101960009846164641F4807101604B4600224FF0C4
:1019700001112046009700F06BF848B1206800681C
:10198000C00502D54FF4007020640320BDE8F88341
:10199000216805F0FE0008613B464A46154920468D
:1019A00000F09EF888B920684169806900903A4645
:1019B0004946204600F02AF948B1206C042804D199
:1019C0002068016841F4007101600120DEE7F5B292
:1019D000B8F1010F09D02168300A08613A4649463A
:1019E000204600F013F90028E7D1206805610020A7
:1019F000CCE700000200010070B516460D46044613
:101A00001EE02046FFF7C9FE08B1012070BD681C2A
:101A100016D0FEF71BFE801BA84200D885B92068AF
:101A20004069C04340070BD5002044F8300F202107
:101A30006173A073216941F0200121612073E4E703
:101A400020684069C0434007DBD4002070BD00001F
:101A50002DE9F047984617460D460446C1F3074660
:101A6000DDF820902AE000BFB8F1FF3F26D0FEF756
:101A7000EDFDA0EB0901414502D8B8F1000F1DD1E1
:101A80002068012E16D0806925EA00000004000CB1
:101A900012D00020B84211D1002044F8300F20218C
:101AA0006173A073216941F020012161207301203D
:101AB000BDE8F0874069E7E70120EBE72068012EE9
:101AC0000AD0806925EA00000004000C06D000203E
:101AD000B842C9D00020EBE74069F3E70120F7E7FF
:101AE0002DE9F047984616460D4604464FF000098A
:101AF0004FF0200AC1F3074723E020684069C04344
:101B0000400515D42068016841F400710160216826
:101B10006FF480604861C4F8309084F83DA084F888
:101B20003E90216C41F00401216484F83C9021E056
:101B3000701C06D0FEF78AFDA0EB0800B04203D867
:101B400016B1012F1FD021E02068012F15D0806928
:101B500025EA00000004000C18D000BF44F8309FB4
:101B600084F80DA084F80E90216941F020012161D4
:101B700084F80C900120BDE8F087406925EA000058
:101B80000004000CEAD12068406901E02068806907
:101B900025EA00000004000CAFD1ECE72DE9F0418C
:101BA000002590460E460446202728E04069C043A1
:101BB000C0060CD454F8301B6FF01000486144F894
:101BC00010596777A577206A2062257714E0FEF721
:101BD0003DFDA0EB0800B04200D886B920684069FE
:101BE000C04340060BD544F8305F6773A573206986
:101BF00040F02000206125730120BDE8F0812068BD
:101C00004169C9434906D1D40020F6E770B51646AC
:101C10000D4604461EE02046FFF7BFFD08B1012037
:101C200070BD681C16D0FEF711FD801BA84200D8BD
:101C300085B920684069C04300060BD5002044F8F0
:101C4000300F20216173A073216941F020012161CF
:101C50002073E4E720684069C0430006DBD400201D
:101C600070BD000010B596B01C2211496846FEF701
:101C7000C9FA0021684600F015FE0E4C0C491C22E2
:101C800020601C3107A8FEF7BDFA002107A800F06C
:101C900009FE074960601C2238310EA8FEF7B2FA2F
:101CA00000210EA800F0FEFDA06016B010BD0000DF
:101CB00040340008000000202DE9F04F85B00025D9
:101CC00061480095019502950395816941F04001B5
:101CD0008161816901F040010491816941F0100145
:101CE0008161816901F010010491816941F0040171
:101CF0008161816901F004010491816941F0080169
:101D00008161816901F008010491816941F020013C
:101D100081618069DFF834A100F020000490012285
:101D200045F2FC515046FEF78BFCDFF824B101224E
:101D300042F213015846FEF783FC0122F021454888
:101D4000FEF77EFC4DF20347012239464248FEF77A
:101D500077FC002204214048FEF772FC4FF4A048B3
:101D6000002241463D48FEF76BFC00224FF4A07173
:101D70005846FEF765FC4FF4106900224946354885
:101D8000FEF75EFC5420012402268DE871006946AE
:101D90005046FEF751FB45F2A850CDE90004CDE9CD
:101DA000024669465046FEF747FB42F21200CDE973
:101DB0000004CDE9024669465846FEF73DFB40F275
:101DC00041108DE8710069465846FEF735FBCDE9B4
:101DD000004569461F480295FEF72EFBF020CDE92D
:101DE0000004CDE9024669461A48FEF725FBCDE915
:101DF0000074CDE9024669461748FEF71DFB042032
:101E00008DE8710069461448FEF716FB4FF4A06098
:101E1000CDE90005694611480295FEF70DFB01AAC0
:101E2000CDF8008082E8700069460C48FEF704FB9C
:101E300001AACDF8009082E8700069460548FEF7D7
:101E4000FBFA05B0BDE8F08F001002400018014019
:101E50000010014000080140000C01400014014046
:101E60000D4810B50B4901600C49416000214FF449
:101E700080428160C0E9031241618161C1610162F8
:101E8000FEF7EAFB002803D0BDE81040FEF7B1BA28
:101E900010BD0000005400400C030020A08601008B
:101EA0001CB500240F4800940D490194016041F6CF
:101EB0001F41C0E9011442F20F718461C160FFF754
:101EC000A9FA08B1FEF795FA00946946054801940D
:101ED000FFF762FA002801D0FEF78BFA1CBD000064
:101EE00000140040600300200C4810B50A4901604E
:101EF0004FF4E1314160002181600C22C160C0E9F2
:101F000004128161C161FFF7BEFB002803D0BDE868
:101F10001040FEF76EBA10BD00380140A803002043
:101F20000C4810B50A4901604FF4E13141600021CD
:101F300081600C22C160C0E904128161C161FFF7B8
:101F4000A2FB002803D0BDE81040FEF752BA10BD36
:101F500000440040F0030020FEE7000070B5224C72
:101F60000A2022792261E178E1606379B3FBF0F520
:101F700000FB1535E5626361B3FBF0F3B3FBF0F5ED
:101F800000FB1533A362B2FBF0F300FB1323B2FB9B
:101F9000F0F26362B2FBF0F300FB13222262B1FBAA
:101FA000F0F200FB1212B1FBF0F1E261B1FBF0F2D2
:101FB00000FB12110120A16100F01AF80220E16972
:101FC00000F016F80520216A00F012F80620616A78
:101FD00000F00EF80420A16A00F00AF8E16ABDE8FA
:101FE0007040032000F004B884000020FEE70000E9
:101FF0002DE9F047F74CF84DDFF8E083F84E271550
:102000004FF480594FF4804A072871D2DFE800F07E
:10201000700456A9FBFAF9000A2969D2DFE801F039
:10202000470507161D1F26283436012240E00022EE
:102030000DE010212046FEF703FB00224021204640
:10204000FEF7FEFA002201212846A5E00122042124
:102050002046FEF7F5FA0122EBE7002200E001221C
:1020600004212046FEF7ECFA002207E0002200E0FF
:10207000012204212046FEF7E3FA01221021204626
:10208000FEF7DEFA0122D9E7002200E00122042156
:102090002046FEF7D5FA002210212046FEF7D0FA9E
:1020A000002240212046FEF7CBFA0122CBE7002296
:1020B00004212046FEF7C4FA0022BAE70A2917D203
:1020C000DFE801F0480507171E20272935370122D0
:1020D00041E000220EE040214046FEF7B1FA002226
:1020E00010212846FEF7ACFA00220121304653E0C9
:1020F000ABE0012210214046FEF7A2FA0122EAE7F6
:10210000002200E0012210214046FEF799FA002249
:1021100007E0002200E0012210214046FEF790FA7D
:10212000012240214046FEF78BFA0122D8E7002227
:1021300000E0012210214046FEF782FA00224021F1
:102140004046FEF77DFA002210212846FEF778FA75
:102150000122CAE7002210214046FEF771FA002250
:10216000B9E74FF480700A296FD2DFE801F04D051E
:1021700007192022292B3739012246E0002210E0DE
:1021800039462046FEF75CFA002249462046FEF713
:1021900057FA002251462046BDE8F047FEF750BAF4
:1021A000012201462046FEF74BFA0122E8E7002211
:1021B00000E0012201462046FEF742FA002207E035
:1021C000002200E0012201462046FEF739FA0122F2
:1021D00039462046FEF734FA0122D6E7002200E015
:1021E000012201462046FEF72BFA002239462046FE
:1021F000FEF726FA002249462046FEF721FA012280
:10220000C8E7AFE05BE006E0002201462046FEF7AB
:1022100017FA0022B4E74FF400440A2915D2DFE888
:1022200001F0470507151C1E25273335012240E024
:1022300000220CE049463046FEF702FA00225146E1
:102240003046FEF7FDF9002230E0ACE001223946CD
:102250003046FEF7F5F90122ECE7002200E001220A
:1022600039463046FEF7ECF9002207E0002200E094
:10227000012239463046FEF7E3F90122494630464D
:10228000FEF7DEF90122DAE7002200E001223946FA
:102290003046FEF7D5F9002249463046FEF7D0F920
:1022A000002251463046FEF7CBF9012221461DE7B8
:1022B000002239463046FEF7C3F90022BAE74FF450
:1022C00000560A296FD2DFE801F0460507141B1DEE
:1022D0002426323401223FE000220BE02021204658
:1022E000FEF7AEF9002231462846FEF7A9F9002292
:1022F0002FE0012208212046FEF7A2F90122EDE796
:10230000002200E0012208212046FEF799F9002270
:1023100007E0002200E0012208212046FEF790F9A4
:10232000012220212046FEF78BF90122DBE7002263
:1023300000E0012208212046FEF782F90022202138
:102340002046FEF77DF9002231462846FEF778F94F
:102350000122022178E6002208212046FEF770F9CA
:102360000022BBE70A2958D2DFE801F05005071424
:102370001B1E25273C3E012249E000220BE0802164
:102380004046FEF75DF9002202213046FEF758F97B
:10239000002239E0012220214046FEF751F90122B6
:1023A000EDE7002201E038E0012220214046FEF75F
:1023B00047F9002207E0002200E0012220214046E8
:1023C000FEF73EF9012280214046FEF739F901224D
:1023D000DAE7000000180140001001400008014049
:1023E000000C0140002200E0012220214046FEF7BF
:1023F00027F9002280214046FEF722F9002202211F
:102400003046FEF71DF901228021C4E6002220217A
:102410004046FEF715F90022B1E7BDE8F08770B538
:10242000002404F1B000C0B200F04EF8002000F02B
:102430004BF8102000F048F80025002000F056F876
:102440006D1CEDB2802DF8D3641CE4B2082CE8D3E7
:1024500070BD10B58D2000F037F8142000F034F86E
:10246000BDE81040AF2000F02FB810B54FF4FA705F
:10247000FDF7D0FFBDE8104000F069B910B5FFF7D7
:10248000F4FFFFF7E6FF00F004F8BDE81040FFF7A7
:10249000C6BF70B5002404F1B000C0B200F014F85B
:1024A000002000F011F8102000F00EF800250020A8
:1024B00000F01CF86D1CEDB2802DF8D3641CE4B262
:1024C000082CE8D370BD000001B584B001214FF4A1
:1024D000807204A88DE807000B460022782102488C
:1024E000FEF73CFB05B000BD0C03002001B584B035
:1024F00001214FF4807204A88DE807000B464022AA
:1025000078210248FEF72AFB05B000BD0C0300202D
:1025100010B5002421460120FFF76AFD2146022064
:10252000FFF766FD21460320FFF762FD21460420E8
:10253000FFF75EFD21460520FFF75AFD21460620E4
:10254000FFF756FDC82000F0A1F9641C0A2CE1DB5E
:1025500010BD000010B5502080F31188BFF34F8FDD
:10256000BFF36F8F00F0A4FE18B104494FF0805004
:102570000860002080F3118810BD000004ED00E029
:1025800030B58FB028216846FDF755FE14210AA802
:10259000FDF751FE01210804CDE90010002402944A
:1025A00002250491CDE907504FF4E01009906846E8
:1025B000FEF760FD08B172B6FEE70F20CDE90A050F
:1025C0004FF48060CDE90C4002210AA80E94FEF77A
:1025D00055FC002801D072B6FEE70FB030BD704741
:1025E0000148FEF79ABF0000380400200148FEF7BA
:1025F00094BF000060030020F0B50268204C214D1C
:10260000214E224F224B4FF0804CA04209D09842DD
:1026100007D0604505D0A84203D0B04201D0B842EF
:1026200004D122F0700E4A6842EA0E02A04209D09C
:10263000984207D0604505D0A84203D0B04201D0EF
:10264000B84203D122F44075CA682A434D6922F08A
:1026500080022A4302608A68C2620A688262A042DB
:1026600001D0984201D109690163012141610169E9
:10267000C90703D0016921F001010161F0BD00002B
:10268000002C01400004004000080040000C004005
:102690000034014070B5044600680169E26821F425
:1026A0004051114301612169A068084361690843F1
:1026B0002168CA6841F20C639A430243CA602068E9
:1026C0004169A26921F44071114341611E492068AA
:1026D000884202D1FEF798FC01E0FEF785FC00EB92
:1026E000C00101EB0012606864218000B2FBF0F3CE
:1026F000B3FBF1F36FF018067343B2FBF0F5B2FBD6
:10270000F0F605EB8305322303EB0515B5FBF1F578
:10271000B6FBF1F605F0F00505EB0615B2FBF0F699
:10272000B2FBF0F0B0FBF1F06FF01802504306EB93
:10273000800003EB0010B0FBF1F0216800F00F0007
:102740002844886070BD000000380140FEE710B5E5
:10275000AE20FFF7B9FE0020FFF7B6FE1020FFF70E
:10276000B3FE4020FFF7B0FE8120FFF7ADFECF2083
:10277000FFF7AAFEA120FFF7A7FEC820FFF7A4FEDF
:10278000A620FFF7A1FEA820FFF79EFE3F20FFF73F
:102790009BFED320FFF798FE0020FFF795FED52083
:1027A000FFF792FE8020FFF78FFED920FFF78CFE07
:1027B000F120FFF789FEDA20FFF786FE1220FFF7EF
:1027C00083FEDB20FFF780FE4020FFF77DFE202008
:1027D000FFF77AFE0220FFF777FE8D20FFF774FEE9
:1027E0001420FFF771FEA420FFF76EFEA620FFF76E
:1027F0006BFEFFF714FEBDE81040AF20FFF764BE8C
:102800000907090E002804DB00F1E02080F800141D
:10281000704700F00F0000F1E02080F8141D7047B1
:1028200002E008C8121F08C1002AFAD17047704799
:10283000002001E001C1121F002AFBD170470000F7
:10284000FEF75AFAFFF79CFEFFF736FAFFF708FB90
:10285000FFF74AFBFFF764FBFFF722FBFFF70EFED3
:102860000548FDF79BFD0548FEF720FEFFF7FAF946
:1028700000F013F8FEE700000C03002060030020C6
:1028800001460020842900D0C81C704710B500B94B
:10289000012000F05FFB002010BD10B500F080FBB0
:1028A000002010BD7FB50D4604464169B0F908000F
:1028B00081B1A16971B1FFF7E3FFD4E905128DE899
:1028C0000700D4E900102B46226900F056FC039063
:1028D00004B070BDFFF7D4FF03A9CDE90001208A41
:1028E0002B4682B2D4E9001000F01AFC012801D076
:1028F0000020EDE70398EBE72DE9F041184C0F4677
:102900000546E6682068001D00F05CFA38B92068CA
:1029100090F82C1001208840216981432161681CB6
:1029200007D137B12168BDE8F0410E48091D00F01C
:102930008DBA20683544B5424560216805D2A06B48
:10294000BDE8F041091D00F069BA606B091D00F097
:1029500065FAA06A854200D2A562BDE8F081000058
:102960001C0000205C0500202DE9F041054600F028
:1029700079FA2E4CA068401CA06020682C4F10B142
:10298000606940B32DE02560A068012829D10026A8
:1029900006EB860007EB800000F032FA761C072E6B
:1029A000F6D323488C3000F02BFA2148A03000F0F9
:1029B00027FA1F48B43000F023FA1D48C83000F051
:1029C0001FFA1B48DC3000F01BFA19488C3060639A
:1029D0001430A06305E02068E96AC06A884200D824
:1029E0002560606A401C6062E96A012022698840B3
:1029F0001043206101EB810007EB8000291D00F0EE
:102A000025FA00F04FFA606900280CD02068E96AC6
:102A1000C06A884207D207494FF080500860BFF370
:102A20004F8FBFF36F8FBDE8F08100001C000020C6
:102A30008004002004ED00E010B5044690F8510039
:102A400058B101280CD002280FD0502080F31188F3
:102A5000BFF34F8FBFF36F8FFEE7206B00F036FAA6
:102A60002046BDE8104000F031BA10BD10484FF4C8
:102A70004061420706D0C01D0D4920F00700411AF1
:102A8000C1F540610B4A00230144C2E90003083943
:102A9000183A21F0070111604B600B600B1AC0E976
:102AA000001393604FF00040536050617047000086
:102AB0007005002070000020144E154CA6F1C807C8
:102AC0004FF08058DFF84C9012E000BF00F0CAF9D8
:102AD000F068C568281D00F075F9A068401EA06068
:102AE0006068401E606000F0DDF92846FFF7A4FF33
:102AF00060680028EAD138680128F9D9C9F800804F
:102B0000BFF34F8FBFF36F8FF2E70000480500203F
:102B10001C00002004ED00E02DE9F05F8846DDE9AF
:102B20000B941546834691009A460A9EA522206B77
:102B3000FDF77AFB6FF00301206B01EB8501084480
:102B400020F00707780707D0502080F31188BFF3E3
:102B50004F8FBFF36F8FFEE70025B8F1000F0FD046
:102B60005FF00000221818F8001082F8341018F8EE
:102B7000001011B1401C1028F4D384F8435001E038
:102B800084F83450072E00D30626E662C4E91165A6
:102B9000201D00F040F904F1180000F03CF9246118
:102BA000C6F107006462A061E56484F850505246A3
:102BB0005946384600F0C0F82060B9F1000F01D046
:102BC000C9F80040BDE8F09F30B5114900E011465A
:102BD0000A688242FBD34B685C18844203D1406888
:102BE00018444860084643681C18944209D1084CB0
:102BF000183C2468A24209D052681A4442600A680C
:102C000012680260814200D0086030BD0460F9E7BC
:102C1000700000200648416B096829B1416BC96802
:102C2000C9684968816270474FF0FF31FAE70000D8
:102C30001C00002008484068401C4FF0500080F302
:102C4000118804D0BFF34F8FBFF36F8FFEE7BFF340
:102C50004F8FBFF36F8FFEE7780000202DE9F04122
:102C60000546002700F0D2F9324E306808B9FFF768
:102C7000FDFE706905424ED1C5B3083568070ED018
:102C800005F00700C0F108000544680707D0502090
:102C900080F31188BFF34F8FBFF36F8FFEE72DB323
:102CA0007068854237D82348183001460C6801E027
:102CB00020460C466168A94202D221680029F7D15A
:102CC00031688C4227D00768216801606068083746
:102CD000411B10290FD96019420708D0502080F3FA
:102CE0001188BFF34F8FBFF36F8FFEE713E0416092
:102CF0006560FFF769FF61687068401A7060B268CC
:102D0000904200D2B060706901430020C4E9000124
:102D1000F068401CF06000F031FB780707D05020CD
:102D200080F31188BFF34F8FBFF36F8FFEE73846F4
:102D3000BDE8F0815800002010B5031F4FF08074EB
:102D40001C601B1F21F001011960191F024B0B6051
:102D5000143940380A6010BD352C000870B50C4697
:102D6000064600F07FF8154D2868C06C80B92968C8
:102D7000012081F850005CB101212046FFF7BCFD25
:102D80000F494FF080500860BFF34F8FBFF36F8F34
:102D900000F088F800F066F82868C46C002034B1B0
:102DA00016B12968C86402E02A68611ED1642968E6
:102DB00081F8500000F076F8204670BD1C0000201D
:102DC00004ED00E0D0E9013201699A60D0E9012305
:102DD0005A604A68824201D182684A6000220261D8
:102DE0000868401E0860086870470000034B0360D5
:102DF00003F154000860802010607047B800002084
:102E000000F108014FF0FF32C0E90112C160016119
:102E100000210160704700210161704730B50B68E7
:102E20005A1C02D000F1080202E0026904E02246C6
:102E3000546825689D42FAD953684B6099608A604E
:102E4000516008610168491C016030BD42684A60F8
:102E500093688B6093685960916008610168491CB0
:102E600001607047502080F31188BFF34F8FBFF38C
:102E70006F8F0A494868401C486001280CD10848F7
:102E8000006810F0FF0F07D0502080F31188BFF3C7
:102E90004F8FBFF36F8FFEE7704700007800002070
:102EA00004ED00E00849486828B1401E486001D19F
:102EB00080F311887047502080F31188BFF34F8F43
:102EC000BFF36F8FFEE700007800002070B5002888
:102ED0002AD0164DA0F1080460686969084207D13C
:102EE000502080F31188BFF34F8FBFF36F8FFEE741
:102EF00022683AB1502080F31188BFF34F8FBFF39F
:102F00006F8FFEE78843606000F080F86068696852
:102F1000084468602046FFF757FE2869401C286176
:102F2000BDE8704000F02ABA70BD000058000020D3
:102F30004FF0E02000210161816105494FF47A7270
:102F40000968B1FBF2F1491E416107210161704737
:102F50001800002010B5020014D00F48006B38B1E3
:102F6000502080F31188BFF34F8FBFF36F8FFEE7C0
:102F700000F04CF800211046FFF7BEFC00F0FEF90F
:102F8000002807D105494FF080500860BFF34F8FEC
:102F9000BFF36F8F10BD00001C00002004ED00E0A7
:102FA00010B586B00024039405AA04A903A80494CC
:102FB000FFF71CFFDDE903010094CDE901100023B8
:102FC0000EA11048059A00F0D8F80F490028C862F1
:102FD00011D0502080F31188BFF34F8FBFF36F8F54
:102FE0004FF0FF30886201204861CC6006B0BDE838
:102FF000104000F041B806B010BD000049444C45F7
:1030000000000000B92A00081C0000200248016BE3
:10301000491C0163704700001C0000201448016B2C
:1030200011B10121C16170470021C1610169B1FA8B
:1030300081F1C1F11F0101EB81020E4951F82230EB
:103040006BB101EB820101F108034A6852684A60E2
:103050009A4201D152684A60D1680160704750209D
:1030600080F31188BFF34F8FBFF36F8FFEE700002F
:103070001C000020800400201CB52649087801901F
:10308000FF20087008788DF800009DF800009DF87A
:10309000002000F0F000904207D0502080F311880B
:1030A000BFF34F8FBFF36F8FFEE79DF800001A4C00
:1030B00000F0500020700720A06005E09DF800207F
:1030C00052008DF80020401E9DF800201206F5D415
:1030D000A060032807D0502080F31188BFF34F8FE2
:1030E000BFF36F8FFEE74FF44070A0600198087047
:1030F0000A48016841F470010160016841F07041C3
:103100000160FFF715FF00206060FDF72FF8002039
:103110001CBD000000E400E07800002020ED00E08D
:103120002DE9FF5F8346DDE90E87994616468A46FC
:103130009000FFF793FD05001CD05420FFF78EFD93
:10314000040014D00020256384F85100CDE902402A
:10315000CDE900874B46324651465846FFF7DCFC26
:103160002046FFF701FC012004B0BDE8F09F28468F
:10317000FFF7ACFE4FF0FF30F6E7F0B585B0DDE9C4
:103180000B640A9DA6B1DCB1542700972663022682
:1031900084F85160002604AFCDE90246CDE900571E
:1031A000FFF7BAFC2046FFF7DFFB049805B0F0BD3F
:1031B000502080F31188BFF34F8FBFF36F8FFEE76E
:1031C000502080F31188BFF34F8FBFF36F8FFEE75E
:1031D0002DE9F0411F4690460D46012690B1044668
:1031E000FFF740FE0FB1E06C386094F85000022108
:1031F00084F85010B8F1050F19D2DFE808F0230B5E
:103200000E141200502080F31188BFF34F8FBFF3CC
:103210006F8FFEE7E16C294301E0E16C491CE1643A
:1032200010E0022801D0E5640CE0002635E0E16CF6
:10323000491C07D0502080F31188BFF34F8FBFF394
:103240006F8FFEE7012828D1201DFFF7BBFD154D2C
:10325000E06A01212A69814011432961124900EB8A
:10326000800001EB8000211DFFF7F0FDA06A38B15E
:10327000502080F31188BFF34F8FBFF36F8FFEE7AD
:10328000E06A2968C96A884207D908494FF0805026
:103290000860BFF34F8FBFF36F8FFFF703FE304619
:1032A000BDE8F0811C0000208004002004ED00E057
:1032B0002DE9F0412F4C0026206B28B1A069401C5D
:1032C000A0613046BDE8F081E5686D1CE56013D172
:1032D000606B006838B1502080F31188BFF34F8FC6
:1032E000BFF36F8FFEE7606BA16B6163A063206A21
:1032F000401C2062FFF78EFCA06ADFF87C808542CC
:1033000009D3606B0068A0B1606BC068C76878685B
:10331000854211D2A0622068C06A00EB800158F893
:103320002100012800D90126E0690028C9D0012622
:10333000C7E74FF0FF30EDE7381DFFF743FDB86AF0
:1033400018B107F11800FFF73DFDF96A0120226965
:1033500088401043206101EB810108EB8100391D99
:10336000FFF774FDF86A2168C96A8842C9D301264B
:10337000C7E700001C000020800400202DE9F04772
:103380002C4D00242746286B38B1FFF76BFD286BC6
:10339000401E2863286B40B146E0502080F311881E
:1033A000BFF34F8FBFF36F8FFEE7A968224E012056
:1033B000D1B3A6F1B40980463068E8B1F068C468BA
:1033C00004F11800FFF7FEFC201DFFF7FBFCE06A8C
:1033D0002A6908FA00F11143296100EB800109EB29
:1033E0008100211DFFF732FDE06A2968C96A884221
:1033F000E2D3C5F81C80DFE70CB1FFF70BFCAC692A
:1034000044B14646FFF754FF00B1EE61641EF9D1A6
:103410000020A861E86938B1084901273807086029
:10342000BFF34F8FBFF36F8FFFF73CFD3846BDE80A
:10343000F08700001C0000203405002004ED00E0AF
:10344000D8340008D9020008000000000000000085
:10345000800000000000000000000000C0340008F0
:10346000F9020008010000000000000080000000D8
:103470000000000000000000C834000871020008CD
:10348000FFFF0000000000008000000000000000BE
:1034900000000000010202030405060708090A0BE8
:1034A0000C0D0E0F101000000000000000000102C3
:1034B00003040607080900000000010203040000DD
:1034C0005265616452544300456E74697265486F79
:1034D000757242426A6961004E697869655F646924
:1034E00073706C617900000008350008000000204E
:1034F000B800000020280008C0350008B8000020EF
:10350000B81400003028000800000000000000008F
:10351000000000000100000010000000000000009A
:1035200000127A000000000000000000000000000F
:10353000000000000000000000000000000000008B
:10354000000000000000000000000000000000007B
:10355000000000000000000000000000000000006B
:10356000000000000000000000000000000000005B
:10357000000000000000000000000000000000004B
:1035800000000000AAAAAAAA000000000000000093
:10359000000000000000000000000000000000002B
:1035A000000000000000000000000000000000001B
:1035B000000000000000000000000000000000000B
:0400000508000131BD
:00000001FF
