:020000040800F2
:10000000B804002045010008EB1600081F12000884
:10001000E916000801020008851800080000000029
:10002000000000000000000000000000EF160008C3
:100030003103000800000000ED160008F11600086A
:100040005F0100085F0100085F0100085F01000810
:100050005F0100085F0100085F0100085F01000800
:100060005F0100085F0100085F0100085F010008F0
:100070005F0100085F0100085F0100085F010008E0
:100080005F0100085F0100085F0100085F010008D0
:100090005F0100085F0100085F0100085F010008C0
:1000A0005F0100085F0100085F0100085F010008B0
:1000B0005F0100085F0100085F0100085F010008A0
:1000C0005F0100085F0100085F0100085F01000890
:1000D0005F0100085F0100085F0100085F01000880
:1000E0005F0100085F0100085F0100085F01000870
:1000F0005F0100085F0100085F0100085F01000860
:100100005F0100085F0100085F0100085F0100084F
:100110005F0100085F0100085F0100085F0100083F
:100120005F0100085F0100085F0100085F0100082F
:10013000DFF80CD000F052F800480047451C0008DA
:10014000B80400200648804706480047FEE7FEE75F
:10015000FEE7FEE7FEE7FEE7FEE7FEE7FEE7FEE777
:10016000531700083101000840EA01039B0703D040
:1001700009E008C9121F08C0042AFAD203E011F8E6
:10018000013B00F8013B521EF9D27047D2B201E0A8
:1001900000F8012B491EFBD270470022F6E710B58C
:1001A00013460A4604461946FFF7F0FF204610BDE5
:1001B00030B50B46014600202022012409E021FA37
:1001C00002F59D4205D303FA02F5491B04FA02F534
:1001D0002844151EA2F10102F1DC30BD064C074D8A
:1001E00006E0E06840F0010394E807009847103407
:1001F000AC42F6D3FFF7A0FF981D0008B81D000819
:10020000FEE700F00F01000900EB800001EB400069
:10021000C0B2704710B5042000F026F8BDE81040C9
:10022000FFF7EFBF10B5032000F01EF8BDE8104047
:10023000FFF7E7BF10B5022000F016F8BDE8104048
:1002400000F03F00FFF7DDBF10B5012000F00CF813
:10025000BDE81040FFF7D5BF10B5052000F004F849
:10026000BDE81040FFF7CDBF31B582B0094D4FF466
:100270007A740094012302AAD021286800F04AFB76
:100280000094012301AAD021286800F01BFA9DF8F0
:1002900004003EBD1000002010B50020FFF7E4FF71
:1002A000BDE8104000F07F00FFF7ABBF10B508209D
:1002B000FFF7DAFF40B210BD0920FFF7D5BF10B538
:1002C0001020FFF7D1FF642100FB01F40620FFF7A7
:1002D000CBFFFFF796FF204410BD000002490860E5
:1002E000002000F003B800001000002010B508B195
:1002F000802400E000240020FFF7B6FF00F07F011B
:100300002143BDE810400020AFF300801CB502235C
:100310008DF804004FF47A70009004488DF80510B1
:1003200001AAD021006800F0F5FA1CBD10000020E1
:10033000704772B6FEE700002DE9F84FDFF8C8916C
:100340000024A9F1040B23460F2709F1040AABF19D
:10035000040ED1E00125A54006EA0502AA4276D1A5
:10036000DFF8A8C14E68A6EB0C0866452BD00DDC63
:10037000032E34D005DC36B3012E19D0022E2FD136
:100380001BE0112E16D0122E2AD119E0B8F5881FC5
:1003900019D006DCB8F5803F15D0B8F5801F1FD105
:1003A00011E0B8F5001F0ED0B8F5041F18D10AE00F
:1003B000CB6815E0CB681B1D12E0CB6808330FE05B
:1003C000CB680C330CE08B682BB1012B4FF008038A
:1003D00003D0456104E0042302E0056100E000234E
:1003E000FF2A01D8064601E000F104064FEA840521
:1003F00001D9A5F12005D6F8008007FA05FC28EA06
:100400000C0803FA05F548EA0508C6F800804D68AF
:10041000ED0070D53E4DAE6946F00106AE61AD69A6
:1004200024F0030605F0010500953A4D06EB050C96
:10043000DCF80850A607360F07FA06F825EA080583
:10044000DFF8D480404503D14FF0000825E052E0AA
:10045000DFF8C880404502D14FF001081DE0DFF809
:10046000C080404502D14FF0020816E0DFF8B480AA
:10047000404502D14FF003080FE0DFF8AC80404563
:1004800002D14FF0040808E0DFF8A080404502D117
:100490004FF0050801E04FF0060808FA06F848EAB0
:1004A0000508CCF808804D68D9F80060ED024D468B
:1004B00001D5164300E096432E604D68DAF80060DF
:1004C000AD02554601D5164300E096432E604D68B7
:1004D000DBF80060AD035D4601D5164300E09643AE
:1004E0002E604D68DEF80060ED03754601D51643B9
:1004F00000E096432E60641C0A681646E2407FF4D2
:1005000029AFBDE8F88F0000080401400000111079
:10051000001002400000014000080140000C0140B2
:10052000001001400014014000180140001C01406F
:1005300001488068704700000000002070B504008A
:1005400025D094F83D00002520B984F83C50204681
:1005500000F076FA242084F83D002068016821F03C
:10056000010101602068016841F4004101602068D8
:10057000016821F40041016000F0B0FB4D4A616860
:10058000914201D84C4900E04C49884201D20120F7
:1005900070BD4B492368B0FBF1F15E6826F03F0661
:1005A0000E435E606368934206D94FF496735943D5
:1005B0004FF47A73B1FBF3F12368491C1E6A26F0ED
:1005C0003F06314319626168914210D84900401ECC
:1005D000B0FBF1F2521CC2F30B02042A01D2042038
:1005E00022E0B0FBF1F0401CC0F30B001CE0A2685D
:1005F000F2B301EBC10303EB0116431EB3FBF6F3A9
:100600005B1C43F480431B0549D092B301EBC1024C
:1006100002EB0111401EB0FBF1F0401CC0F30B00D7
:1006200040F4804040F400402168CA694CF6FF73F2
:100630009A431043C861D4E9071001432068026857
:1006400022F0C00211430160D4E903010143206894
:10065000826848F2FF339A4311438160D4E905016F
:1006600008432168CA6822F0FF021043C86001E015
:100670000EE016E02068016841F001010160256488
:10068000202084F83D00256384F83E50002070BD92
:1006900001EB4106431EB3FBF6F35B1CB3E70120FD
:1006A000C2E701EB4101401EB0FBF1F0401CC0F37A
:1006B0000B00B7E7A086010080841E0000093D0002
:1006C00040420F002DE9F84F0025DDF828909846AC
:1006D00017468A4604460095FFF72AFF064694F817
:1006E0003D0020287AD11923012286492046009610
:1006F00000F09EFE0028F5D194F83C0001286DD052
:10070000012084F83C0020680168C90703D1016812
:1007100041F0010101602068016821F4006101607D
:10072000222084F83D00102084F83E002564676292
:10073000A4F82A80608D20857348E06233464A46DB
:100740005146204600F084FD00287CD1208DDFF842
:10075000BC81202768B1012814D0022820680168D4
:100760001ED041F480610160206841698069009079
:10077000BBE02068416981690091016841F4007122
:100780000160B2E02068016821F48061016072B606
:100790002068416981690091016841F400710AE0B3
:1007A00041F40061016072B620684169816900917D
:1007B000016821F48061016062B696E0032865D883
:1007C00001280CD002284B464FF00002414620463B
:1007D00000960BD000F02CFEA8BB0CE090E0324657
:1007E0004946204600F0CAFE68BB71E000F020FEDA
:1007F00048BB72B633E02068016821F48061016073
:1008000072B620680069616A0870606A401C6062A4
:10081000208D401E2085608D401E60853C4846F23C
:10082000A8110068B0FBF1F0C0EBC00000EB800045
:100830000090401E009007D020684069C0434007E8
:100840000DD50098F5E727E044F8305F6773A5738E
:10085000206940F02000206162B625731CE020680A
:10086000016841F40071016020680069616A0870E4
:10087000606A401C6062218D491E2185618D491E80
:10088000618562B621680969017025E032464946F2
:10089000204600F073FE10B10120BDE8F88F2068FB
:1008A0000069616A0870606A401C6062208D401EA9
:1008B00081B22185608D401E608520684269D243E7
:1008C000520712D4032903D1016821F48061016029
:1008D00020680069616A0870606A401C6062208D4F
:1008E000401E2085608D401E6085208D00287FF48D
:1008F00065AF84F83D7084F83E5084F83C50CCE7F6
:100900000220CAE7020010000000FFFF04000100FF
:100910000C0000202DE9F84F1F4690468A460446F9
:10092000DDF82890FFF704FE054694F83D002028E6
:100930007FD11923012240492046009500F078FD1F
:10094000002876D194F83C00012872D0012084F868
:100950003C0020680168C90703D1016841F001012A
:1009600001602068016821F400610160212084F8A1
:100970003D00102084F83E0000262664C4F8248040
:100980006785608D20852D48E0622B464A4651469A
:10099000204600F0D3FC90B920684169806900903E
:1009A00036E02A464946204600F020FE50B1206C31
:1009B000042804D12068016841F40071016001201D
:1009C000BDE8F88F606A216800780861606A401CA1
:1009D0006062618D491E6185218D491E89B2218524
:1009E00022685369DB435B070BD451B10078106177
:1009F000606A401C6062608D401E6085208D401ED4
:100A000020852A464946204600F0E6FC0028CED143
:100A1000208D0028C5D154F83D0B016841F40071C8
:100A20000160202004F81E09E67766770020C7E7FA
:100A3000FFE70220C4E70000020010000000FFFFF3
:100A400010B586B0002100910191029103910068D8
:100A50000F4988421AD10F4CA06940F00800A061EC
:100A6000A069694600F008000490C02000901220A0
:100A70000190032003900848FFF75EFCE06940F412
:100A80000010E061E06900F40010049006B010BDB1
:100A90000054004000100240000C014002488168F0
:100AA000027811448160704700000020074810B5AB
:100AB000016841F010010160032000F067F80F2089
:100AC00000F006F800F024F8002010BD00200240DD
:100AD00070B50D4D04464FF47A712878B1FBF0F0F3
:100AE0000A490968B1FBF0F000F0CEFA48B9102CC1
:100AF00007D200222146501E00F028F800206C602A
:100B000070BD012070BD0000000000200C0000201E
:100B10000C4808B5816941F001018161816901F0EA
:100B200001010091C16941F08051C161C06900F0CB
:100B3000805000900448416821F0E06141F000716C
:100B4000416008BD0010024000000140F0B40E4BAF
:100B50001B680C46C3F30223C3F10705042D00D91B
:100B60000425191D072901D2002300E0DB1E012600
:100B700006FA05F1491E214099409E40761E164016
:100B80003143F0BC00F090BE0CED00E0064900F0EF
:100B9000070208684FF6FF03184040EA0220034AA4
:100BA00010430860704700000CED00E00000FA05FB
:100BB0002DE9F0470F46050061D0434E306800F044
:100BC0000700B84209D2306820F00700384330608F
:100BD000306800F00700B84251D128683B4C8107CB
:100BE00012D5400703D5606840F4E0606060287863
:100BF000000703D5606840F4605060606068A968D1
:100C000020F0F000084360602878C00728D06868AA
:100C1000012810D02168022810D0890700292EDA77
:100C2000616821F0030101436160FFF781FC8046A8
:100C300041F288390DE021688903EFE78901EDE78A
:100C4000FFF776FCA0EB0801494502D90320BDE877
:100C5000F0876068696800F00C00B0EB810FEFD19D
:100C6000306800F00700B8420BD9306820F0070068
:100C700038433060306800F00700B84201D00120EE
:100C8000E5E72878400705D56068E96820F4E0606A
:100C9000084360602878000706D56068296920F459
:100CA000605040EAC100606000F038F86168084AAE
:100CB000C1F30311515CC84006490860064800684A
:100CC000FFF706FF0020C2E70020024000100240AC
:100CD0003A1D00080C0000200400002004480549CB
:100CE00000684968044AC1F30221515CC84070475A
:100CF0000C000020001002404A1D0008044805496D
:100D000000684968044AC1F3C221515CC840704779
:100D10000C000020001002404A1D00080E4A5168D5
:100D20000E4801F00C03042B11D0082B0FD10C48F6
:100D3000C1F38343C903C05C0AD55168084AC1F3B3
:100D40004041921E515C054A5043B0FBF1F07047A0
:100D500004494843704700000010024000127A0026
:100D60002A1D000800093D002DE9F84F040070D04D
:100D70002078C04DC00749D06868C0F381000128C1
:100D800007D06868C0F38100022809D16868C003F1
:100D900006D52868800339D560680028E7D035E09B
:100DA0006068B0F5803F0BD010B1B0F5A02F11D026
:100DB000286820F480302860286820F4802002E031
:100DC000286840F480302860606890B1FFF7B0FB7D
:100DD00006460AE0286840F480202860F0E700BF5B
:100DE000FFF7A6FB801B642873D828688003F7D51B
:100DF0000CE0FFF79DFB064605E000BFFFF798FB00
:100E0000801B6428F0D828688003F7D420789A4E95
:100E100080074FF001094FF0000839D5686810F0DD
:100E20000C0F07D06868C0F38100022809D16868F8
:100E3000C00306D42868800714D52069012808D18A
:100E400010E02069B0B1C6F80090FFF771FB0746CB
:100E500005E00AE1FFF76CFBC01B0228C4D8286834
:100E60008007F7D52868616920F0F80040EAC100E2
:100E700028600DE0C6F80080FFF75AFB074604E043
:100E8000FFF756FBC01B022823D828688007F7D439
:100E9000207800072CD57948A169D9B1C0F8009015
:100EA000FFF746FB074604E0FFF742FBC01B0228A2
:100EB0000FD8686A8007F7D571484FF4FA51006877
:100EC000B0FBF1F0009000BF0098411E0091FAD2F3
:100ED0000EE080E0C0F80080FFF72AFB074604E040
:100EE000FFF726FBC01B022875D8686A8007F7D475
:100EF0002078400760D5E8690027C00008D4E86979
:100F000040F08050E861E869012700F080500090CF
:100F10005C480168C90513D40168834641F48071B7
:100F20000160FFF705FB824606E000BFFFF700FB0C
:100F3000A0EB0A0064284ED8DBF80000C005F5D508
:100F4000E06801280AD008B1052813D0286A20F0EB
:100F500001002862286A20F0040002E0286A40F0BC
:100F600001002862E06841F2883B98B1FFF7E0FA9F
:100F700082460BE0286A40F004002862EEE700BFDA
:100F8000FFF7D6FAA0EB0A0159455AD8286A80071C
:100F9000F6D50CE0FFF7CCFA824605E0FFF7C8FA79
:100FA000A0EB0A0159454CD8286A8007F6D41FB136
:100FB000E86920F08050E861E06988B36968C1F3AE
:100FC0008101022944D00228C6F8608004D0FFF7CE
:100FD000AFFA044638E034E0FFF7AAFA074604E027
:100FE000FFF7A6FAC01B02282BD828688001F7D487
:100FF000206AB0F5803F05D16868A16820F4003010
:1010000008436860D4E908010843696821F4741151
:1010100008436860C6F86090FFF78AFA044606E065
:1010200025E000BFFFF784FA001B022809D82868D2
:101030008001F7D51BE000BFFFF77AFA001B0228FA
:1010400002D90320BDE8F88F28688001F4D40EE0AF
:101050000128F7D06868226A00F48031914204D1F7
:10106000616A00F47010884201D00120EAE7002094
:10107000E8E70000001002400000424280044242C3
:101080000C0000200070004010B5401EB0F1807FC1
:1010900001D3012010BD4FF0E02460610F216017E3
:1010A00000F002FC0020A06107202061002010BD9C
:1010B00070B5040004D094F84100002510B106E09A
:1010C000012070BD84F84050204600F023F8242011
:1010D00084F841002068C16821F40051C1602046B5
:1010E00000F038FB2068016921F49041016120681B
:1010F000416921F02A0141612068C16841F4005131
:10110000C1606564202084F8410084F84200656372
:10111000002070BD30B585B0002400940194029485
:10112000039400681449884224D11448816941F429
:1011300080418161816901F480410491816941F0BC
:101140000401816180690E4D00F0040004904FF4A9
:101150000070009002200190032003906946284609
:10116000FFF7EAF82815CDE90004694628460294FD
:10117000FFF7E2F805B030BD003801400010024032
:10118000000801402DE9F843044690F841001F464D
:1011900016460D46202802D00220BDE8F8837DB116
:1011A00076B100206064212084F84100FFF7C0F987
:1011B000A6848046E684A068B0F5805F02D003E094
:1011C0000120EAE7206910B12E4600250EE0002636
:1011D0000CE08021204600F019FBA0B9AEB116F852
:1011E000010B21684860E08C401EE084E08C43469F
:1011F0004FF0000200970028EBD14FF0400120464D
:1012000000F004FB30B10320C7E735F8020BC0F350
:101210000800E6E7202084F841000020BDE7FEE753
:1012200001684A69D24352050FD46FF480624A6163
:10123000002140F8301F202242738173026942F07E
:101240000402026101730120704700207047000012
:101250002DE9F84F0446C06A1E4693460D462168A4
:101260000A6842F480620A60082807D0012805D085
:1012700010F5803F02D0206B112804D1206801684E
:1012800041F4807101604FF001195B46002249462C
:101290002046009600F0CCF84FF4007840B120686A
:1012A0000068C00501D5C4F840800320BDE8F88F70
:1012B0002069DFF884A0B0F5804F0FD006202168A8
:1012C00000EAD51747F0F000086133465A460AF1A4
:1012D0000601204600F0F4F858BB03E0E8B240F005
:1012E00001001CE02168E8B2086133465A465146C5
:1012F000204600F0E5F8E0B9206841698169009175
:10130000016841F4807101605B4600224946204635
:10131000009600F08DF80028C1D147F0F100216857
:10132000086133465A465146204600F0C9F8002865
:10133000BCD00120BAE7000002000100F8B5044665
:10134000C06A1E460D461746082807D0012805D05A
:1013500010F5803F02D0206B122804D1206801686C
:1013600041F480710160134600224FF001112046C4
:10137000009600F05DF840B120680068C00502D515
:101380004FF4007020640320F8BD2069B0F5804F51
:101390000ED00620216800EAD51040F0F000086168
:1013A00033463A460B49204600F08AF878B902E005
:1013B00005F0FE0000E0E8B2216808610549334607
:1013C0003A46891F204600F07BF80028DCD0012037
:1013D000F8BD00000800010070B516460D46044631
:1013E0001EE02046FFF71CFF08B1012070BD681CFD
:1013F00016D0FFF79DF8801BA84200D885B9206859
:101400004069C04340070BD5002044F8300F20212D
:101410006173A073216941F0200121612073E4E729
:1014200020684069C0434007DBD4002070BD000045
:101430002DE9F047984617460D460446C1F3074686
:10144000DDF820902AE000BFB8F1FF3F26D0FFF77B
:101450006FF8A0EB0901414502D8B8F1000F1DD18A
:101460002068012E16D0806925EA00000004000CD7
:1014700012D00020B84211D1002044F8300F2021B2
:101480006173A073216941F0200121612073012063
:10149000BDE8F0874069E7E70120EBE72068012E0F
:1014A0000AD0806925EA00000004000C06D0002064
:1014B000B842C9D00020EBE74069F3E70120F7E725
:1014C0002DE9F047984616460D4604464FF00009B0
:1014D0004FF0200AC1F3074723E020684069C0436A
:1014E000400515D42068016841F40071016021684D
:1014F0006FF480604861C4F8309084F83DA084F8AF
:101500003E90216C41F00401216484F83C9021E07C
:10151000701C06D0FFF70CF8A0EB0800B04203D80F
:1015200016B1012F1FD021E02068012F15D080694E
:1015300025EA00000004000C18D000BF44F8309FDA
:1015400084F80DA084F80E90216941F020012161FA
:1015500084F80C900120BDE8F087406925EA00007E
:101560000004000CEAD12068406901E0206880692D
:1015700025EA00000004000CAFD1ECE72DE9F041B2
:10158000002590460E460446202728E04069C043C7
:10159000C0060CD454F8301B6FF01000486144F8BA
:1015A00010596777A577206A2062257714E0FEF747
:1015B000BFFFA0EB0800B04200D886B920684069A0
:1015C000C04340060BD544F8305F6773A5732069AC
:1015D00040F02000206125730120BDE8F0812068E3
:1015E0004169C9434906D1D40020F6E770B51646D3
:1015F0000D4604461EE02046FFF712FE08B101200A
:1016000070BD681C16D0FEF793FF801BA84200D85F
:1016100085B920684069C04300060BD5002044F816
:10162000300F20216173A073216941F020012161F5
:101630002073E4E720684069C0430006DBD4002043
:1016400070BD0000094808B5816941F0040181615D
:10165000816901F004010091816941F00801816113
:10166000806900F00800009008BD000000100240F2
:101670000D4810B50B4901600C49416000214FF441
:1016800080428160C0E9031241618161C1610162F0
:10169000FEF754FF002803D0BDE81040FEF749BE16
:1016A00010BD00000054004018000020A08601007A
:1016B0000C4810B50A4901604FF4E1314160002146
:1016C00081600C22C160C0E904128161C161FFF731
:1016D000EFFC002803D0BDE81040FEF72ABE10BD85
:1016E000003801406C000020FEE7FEE770477047BD
:1016F000FFF7D4B930B58FB028216846FEF74DFD0D
:1017000014210AA8FEF749FD01210804CDE90010C3
:101710000024029402250491CDE907504FF4E01013
:1017200009906846FFF720FB08B172B6FEE70F206C
:10173000CDE90A054FF48060CDE90C4002210AA8EA
:101740000E94FFF735FA002801D072B6FEE70FB00D
:1017500030BD704770B5044600680169E26821F445
:101760004051114301612169A06808436169084340
:101770002168CA6841F20C639A430243CA60206838
:101780004169A26921F44071114341611E492068F9
:10179000884202D1FFF7B2FA01E0FFF79FFA00EBAF
:1017A000C00101EB0012606864218000B2FBF0F31D
:1017B000B3FBF1F36FF018067343B2FBF0F5B2FB25
:1017C000F0F605EB8305322303EB0515B5FBF1F5C8
:1017D000B6FBF1F605F0F00505EB0615B2FBF0F6E9
:1017E000B2FBF0F0B0FBF1F06FF01802504306EBE3
:1017F000800003EB0010B0FBF1F0216800F00F0057
:101800002844886070BD0000003801402DE9F04197
:10181000984617460E460446069D27E0681C25D0CC
:101820002DB1FEF785FEA0EB0800A8421ED9206866
:101830000C3050E8001F21F4D07140E80012002A5B
:10184000F5D12068143050E8001F21F0010140E874
:101850000012002AF5D1202084F8410084F84200CB
:10186000002084F840000320BDE8F0812068006873
:1018700036EA000004D00020B842CFD00020F3E7C1
:101880000120F9E7FEE700000FB4054B10B503A9EE
:10189000044A029800F028F810BC5DF814FB000020
:1018A0002D1C0008140000200907090E002804DB85
:1018B00000F1E02080F80014704700F00F0000F104
:1018C000E02080F8141D704702E008C8121F08C10C
:1018D000002AFAD170477047002001E001C1121FB1
:1018E000002AFBD1704700002DE9FF4F8BB08846DE
:1018F0000546002606E025280BD0DDE90D129047AD
:101900006D1C761C28780028F5D10FB03046BDE854
:10191000F08F0024A146A2460122AE4900E0044314
:1019200015F8013F203B02FA03F00842F7D128786E
:101930002A2810D06FF02F022878A0F13001092951
:1019400015D809EB890102EB410144F0020400EBD8
:1019500001096D1CF0E758F8041B5FEA010903D583
:1019600044F40054C9F1000944F002046D1C2878C5
:101970002E2817D115F8010F44F004042A280ED0A0
:101980006FF02F022878A0F1300109290AD80AEB5C
:101990008A0102EB410100EB010A6D1CF2E758F8E5
:1019A00004AB6D1C28786C280FD006DC4C2817D0AF
:1019B00068280DD06A2814D104E0742810D07A2841
:1019C0000FD10DE044F400140AE044F4801401E067
:1019D00044F440146978814202D104F580146D1CEE
:1019E0006D1C2878692865D006DC00288DD0632816
:1019F00027D0642806D15DE06E2808D073282AD04D
:101A0000752877D0DDE90D129047761CE0E0C4F32D
:101A10000250022809D003280DD0D8F8001004285D
:101A20000DD00E6008F10408D2E0D8F80010F217CB
:101A3000C1E90062F6E7D8F800100E80F2E70E70F8
:101A4000F0E718F8041B8DF8001000208DF8010055
:101A5000EB46012003E058F804BB4FF0FF3061076C
:101A60004FF0000701D40AE07F1C57450DDA87428A
:101A7000FADB1BF807100029F6D106E07F1C87422D
:101A8000FCDB1BF807100029F8D1DDE90D23A9EBD9
:101A900007008146214600F0B1F83044C61904E041
:101AA000DDE90D121BF8010B90477F1EF8D221468D
:101AB000484688E058F8040BC4F302514FF00A0B73
:101AC000032900D100B2042900D140B2002802DA73
:101AD00040422D2102E0210505D52B218DF824104F
:101AE000012104E006E0E10710D02021F6E708AF6D
:101AF000089113E058F8040BC4F302514FF00A0B9D
:101B0000032900D180B2042900D1C0B20021EEE740
:101B10005946FEF74DFB303107F8011D0028F7D17B
:101B2000ADEB070000F1200B600702D524F48034F0
:101B300001E04FF0010ADA4502DDAAEB0B0000E0FC
:101B40000020824600EB0B0108980144A9EB01003C
:101B50000A90E00306D4DDE90D2321460A9800F03F
:101B60004DF806444FF0000908E009A911F80900F2
:101B7000DDE90D12904709F10109761C08998945A4
:101B8000F3DBE0030CD5DDE90D2321460A9800F0D4
:101B900035F8064404E0DDE90D1230209047761C4C
:101BA000BAF10001AAF1010AF5DC05E0DDE90D1248
:101BB00017F8010B9047761CBBF10001ABF1010B4C
:101BC000F4DC0A982146DDE90D2300F005F806440F
:101BD0006D1C97E6092801002DE9F0410446002517
:101BE0001E461746880404D405E039462020B04735
:101BF0006D1C641EF9D52846BDE8F0812DE9F04141
:101C0000044600251E469046C80301D5302700E053
:101C10002027880404D505E041463846B0476D1CAE
:101C2000641EF9D52846BDE8F081000013B53223C3
:101C3000012269460248FFF7A5FA00981CBD000082
:101C40006C000020A4B01C2224491DA8FEF78CFAC9
:101C5000FEF72CFFFFF74EFDFFF7F4FCFFF708FD42
:101C6000FFF726FD1E48FEF739FBFEF761FC044630
:101C70004FF47A7BFEF75CFC001B5845FAD9FEF75F
:101C8000C9FA8246FEF7E8FA8146FEF718FB80465D
:101C9000FEF7C8FA0646FEF7CDFA0446FEF7D4FA78
:101CA0000546FEF7F9FA0746FEF700FBFEF704FBD0
:101CB000642104A8FEF771FA1DA8534650F82600C7
:101CC0004A46CDE90270414606A0CDE90045FFF73E
:101CD000DBFDFEF72DFC0446CCE700000C1D0008E0
:101CE0001800002054696D653A253034642D253084
:101CF00032642D2530326409253032643A25303281
:101D0000643A253032642025730D0A00641D0008F2
:101D10005C1D0008841D0008781D00088C1D00084B
:101D2000541D00086C1D000801020203040506078B
:101D300008090A0B0C0D0E0F101000000000000027
:101D40000000010203040607080900000000010268
:101D50000304000046726964617900004D6F6E648F
:101D60006179000053756E64617900005361747588
:101D700072646179000000005765646E6573646188
:101D80007900000054756573646179005468757258
:101D90007364617900000000B81D00080000002095
:101DA00018000000C8180008D01D00081800002006
:101DB000A0040000D8180008010000001000000076
:101DC000000000000024F4000000000000000000FB
:0400000508000131BD
:00000001FF
