:020000040800F2
:10000000D804002045010008B11F0008391A000873
:10001000AD1F0008E9010008C51F0008000000002E
:10002000000000000000000000000000B91F0008F0
:100030002105000800000000B51F0008BD1F0008D2
:100040005F0100085F0100085F0100085F01000810
:100050005F0100085F0100085F0100085F01000800
:100060005F0100085F0100085F0100085F010008F0
:100070005F0100085F0100085F0100085F010008E0
:100080005F0100085F0100085F0100085F010008D0
:100090005F0100085F0100085F0100085F010008C0
:1000A0005F0100085F0100085F0100085F010008B0
:1000B0005F0100085F0100085F0100085F010008A0
:1000C0005F0100085F0100085F0100085F01000890
:1000D0005F0100085F0100085F0100085F01000880
:1000E0005F0100085F0100085F0100085F01000870
:1000F0005F0100085F0100085F0100085F01000860
:100100005F0100085F0100085F0100085F0100084F
:100110005F0100085F0100085F0100085F0100083F
:100120005F0100085F0100085F0100085F0100082F
:10013000DFF80CD000F040F800480047E91F000845
:10014000D80400200648804706480047FEE7FEE73F
:10015000FEE7FEE7FEE7FEE7FEE7FEE7FEE7FEE777
:10016000C11F000831010008D2B201E000F8012BE4
:10017000491EFBD270470022F6E710B513460A4627
:1001800004461946FFF7F0FF204610BD30B50B4678
:10019000014600202022012409E021FA02F59D42B7
:1001A00005D303FA02F5491B04FA02F52844151E8B
:1001B000A2F10102F1DC30BD1CB5094800900948EC
:1001C00001900546009C06E0E06840F0010394E8D9
:1001D000070098471034AC42F6D3FFF7ADFF00009C
:1001E000D0240008F0240008FEE70000B0B582B07B
:1001F00040F23004C2F20004042120688DF8071098
:100200004FF47A750DF10702D0210123009500F01B
:1002100043FD20680DF10602D0210123009500F076
:1002200039FB9DF80600010901EB810100F00F0088
:1002300000EB4100C0B202B0B0BD0000B0B582B06A
:1002400040F23004C2F20004032120688DF8071048
:100250004FF47A750DF10702D0210123009500F0CB
:100260001BFD20680DF10602D0210123009500F04E
:1002700011FB9DF80600010901EB810100F00F0060
:1002800000EB4100C0B202B0B0BD0000B0B582B01A
:1002900040F23004C2F20004022120688DF80710F9
:1002A0004FF47A750DF10702D0210123009500F07B
:1002B000F3FC20680DF10602D0210123009500F027
:1002C000E9FA9DF80600C0F3011141EA810100F04E
:1002D0000F0000EB410002B0B0BD0000B0B582B02D
:1002E00040F23004C2F20004012120688DF80710AA
:1002F0004FF47A750DF10702D0210123009500F02B
:10030000CBFC20680DF10602D0210123009500F0FE
:10031000C1FA9DF80600010901EB810100F00F0010
:1003200000EB4100C0B202B0B0BD0000B0B582B079
:1003300040F23004C2F20004052120688DF8071055
:100340004FF47A750DF10702D0210123009500F0DA
:10035000A3FC20680DF10602D0210123009500F0D6
:1003600099FA9DF80600010901EB810100F00F00E8
:1003700000EB4100C0B202B0B0BD0000B0B582B029
:1003800040F23004C2F20004002120688DF807100A
:100390004FF47A750DF10702D0210123009500F08A
:1003A0007BFC20680DF10602D0210123009500F0AE
:1003B00071FA9DF80600C0F3021101EB810100F013
:1003C0000F0000EB410002B0B0BD0000B0B582B03C
:1003D00040F23004C2F20004082120688DF80710B2
:1003E0004FF47A750DF10702D0210123009500F03A
:1003F00053FC20680DF10602D0210123009500F086
:1004000049FA9DF9060002B0B0BD0000B0B582B057
:1004100040F23004C2F20004092120688DF8071070
:100420004FF47A750DF10702D0210123009500F0F9
:1004300033FC20680DF10602D0210123009500F065
:1004400029FA9DF8060002B0B0BD000070B582B078
:1004500040F23005C2F20005102128688DF8051021
:100460004FF47A740DF10502D0210123009400F0BD
:1004700013FC286801AAD0210123009400F00AFA95
:10048000062128689DF804608DF807100DF1070219
:10049000D0210123009400F0FFFB28680DF1060233
:1004A000D0210123009400F0F5F99DF80600010920
:1004B00001EB810100F00F0000EB4100C0B26421AC
:1004C00006FB010002B070BD70B582B040F230058D
:1004D000C2F2000500264FF47A740DF10502D02116
:1004E000012328608DF80560009400F0D5FB286892
:1004F00001AAD0210123009400F0CCF99DF804005A
:100500000DF1060200F07F0128688DF80710D02158
:1005100002238DF80660009400F0BEFB02B070BDAF
:1005200070470000EFF3108072B600BFFEE70000D6
:100530002DE9F04F82B00E68002E00F0EF80A0F1A0
:100540008042A2F58432870547EA922241F60047AD
:1005500040F2004EC4F201070625C4F2010EB84273
:1005600008BF052500244FF001080F234FF0000AB3
:100570004FF0000B052A38BF1546009509E000BF73
:100580000E680AF1010A36FA0AF204F1040400F0D6
:10059000C58008FA0AFC16EA0C09F1D04E684FF63D
:1005A000FF72C1F21002964212DC122E56D8DFE81A
:1005B00006F0350B45495555555555555555555525
:1005C0005555554D510000BFD1F80CB046E000BF65
:1005D0004FF6FF72C1F2210296420FDC0022C1F2F7
:1005E000110296421AD00022C1F21202964215D090
:1005F0000022C1F22102964210D02FE00022C1F267
:10060000220296420AD00022C1F23102964205D05F
:100610000022C1F23202964220D100BF8A684AB15C
:10062000012A14BFC0F814C0C0F810C04FF0080B66
:1006300014E000BF4FF0040B10E000BFCA6802F1E5
:10064000080B0BE04FF0000B08E000BFCA6802F196
:10065000040B03E0CA6802F10C0B00BF22460646F9
:10066000B9F5807F24BF203A0436376803FA02F5D3
:10067000AF430BFA02F23A433260CA79D2067FF5F1
:100680007FAF41F21807C4F202073A684FF60843F9
:1006900042F001023A603A68CFF6FF7302F00102BD
:1006A0000192019A2AF0030272440F25D75804F0F0
:1006B0000C06B540AF43009D05FA06F63743D75008
:1006C0004E6840F20C45F202DEF8082054BF22EAE0
:1006D000090242EA0902C4F20105CEF808202A689C
:1006E000B70254BF22EA090242EA09022A60DEF890
:1006F0000420B70354BF22EA090242EA0902CEF8F5
:1007000004200F23DEF80020F70354BF22EA090279
:1007100042EA0902CEF8002032E700BF02B0BDE88D
:10072000F08F000040F2D000C2F200000068704775
:10073000002804BF01207047F0B581B0044690F84E
:100740003D0028B9002084F83C00204600F092FBD0
:10075000242084F83D002068016821F00101016037
:10076000016841F400410160016821F40041016029
:1007700000F038FD636848F2A16CC0F2010C40F64D
:100780000011C0F23D0163453CBF48F28041C0F218
:100790001E01884202D2012001B0F0BD4DF68361F6
:1007A000C4F21B31A0FB01122168970CD1F804E0C0
:1007B0004FF496762EF03F0545EA92454D6077431B
:1007C00048F638160D6AC0F24106A7FB067625F0FA
:1007D0003F07634538BF960C721C3A430A62CA69E8
:1007E00048F2A0664CF6FF77C0F20106B34222EA57
:1007F00007020BD801385B00B0FBF3F001306FF358
:100800001F30042898BF04201BE000BFA7680138F0
:1008100057B119277B43B0FBF3F001306FF31F3062
:1008200070B100F5804007E003EB4303B0FBF3F049
:1008300001306FF31F3018B100F5004001E000BF38
:1008400001201043C8610868D4E9072320F0C000E4
:10085000104318430860886848F2FF3204F10C071F
:1008600090438CCF18431043A6698860C86820F075
:10087000FF0038433043C860086840F0010008605A
:1008800000202021206484F83D10206384F83E007D
:1008900001B0F0BD2DE9F04784B0044600201F46AA
:1008A000164689460290FFF73DFF94F83D10202937
:1008B00024D10546206800BF816989071AD5FFF752
:1008C00031FF411B20681A29F6D381698907F3D5C6
:1008D00000202021206384F83D1084F83E00216C24
:1008E00041F02001216484F83C00022004B0BDE8FE
:1008F000F08700BF94F83C10012903D1022004B016
:10090000BDE8F087012184F83C100168C90703D1D4
:10091000016841F0010101600168DDF8308021F4D7
:1009200000610160222184F83D10102184F83E10FE
:100930000021216466626785618D0227C0F201078C
:100940002185A7F10211E162E16A026811F5803F99
:1009500042F48062026018BF01293DD1016841F470
:100960008071016020464FF001110022434600953E
:1009700001F0C2F850B120680068C00544BF4FF4D0
:1009800000702064012004B0BDE8F0872069B0F554
:10099000804F27D149F00100C0B22168424608616A
:1009A000204639462B4601F08DF90028EAD1208DEA
:1009B00002284BD001285FD0002840F0738000202F
:1009C000039020684169039181690391039901684B
:1009D00041F40071016071E00829BFD0216B112939
:1009E000BCD0BFE7062000EAD916206806F1F00166
:1009F0000161B91D204642462B4601F063F90028EB
:100A0000C0D120685FFA89F101612046394642462B
:100A10002B4601F057F90028B4D10020039020683C
:100A2000002241694346039181690391039901685A
:100A300041F48071016020464FF00111009501F0F2
:100A40005BF8002897D146F0F100A6E7206801681E
:100A500041F400610160EFF3108072B60020039052
:100A6000206841690391816903910399016821F428
:100A70008061016062B621E02068016821F4806134
:100A80000160EFF3108072B6002003902068416986
:100A90000391816903910399016841F40071016038
:100AA00062B60BE02068016841F4806101600021BA
:100AB000039141690391806903900398208D002878
:100AC00000F0CC8040F228094BF2895A0237C2F27A
:100AD0000009C1F2F84A23260EE000BF1069087031
:100AE000606A218D01306062481E2085618D013968
:100AF0006185010400F0B28080B203280CD802287E
:100B00002CD001284AD1204641462A4601F046F918
:100B1000002800F09F8035E7204641462A4601F034
:100B20003DF900287FF42EAF2068616A00690870E3
:100B3000606A2268411C208D616201382085638DC6
:100B4000013B638553695B07D3D580B20328C5D1C8
:100B5000106820F480601060C0E700BF204639466E
:100B600000224346009500F0C7FF00287FF40AAF3B
:100B7000EFF3108072B62068616A026842F4007276
:100B8000026000690870606A218D01306062481E51
:100B90002085608D0138608562B65BE0204639466D
:100BA00000224346009500F0A7FF00287FF4EAAE3C
:100BB0002068016821F480610160EFF3108072B653
:100BC0002068616A00690870606A218D013001390E
:100BD00060622185618D01396185D9F80010C908ED
:100BE000A1FB0A12110A7143029102990139029183
:100BF000029900293ED021684A6952071AD4029905
:100C0000013902910299A9B321684A69520711D4A6
:100C1000029901390291029961B321684A69520728
:100C200008D4029901390291029919B321684A69DD
:100C30005207DAD50A6842F400720A600969017045
:100C4000606A218D01306062481E2085608D013808
:100C5000608562B62068616A006940E7202084F8F8
:100C60003D00002084F83E0084F83C0004B0BDE85C
:100C7000F08700BF00202021206384F83D1084F815
:100C80003E00216C41F02001216462B684F83C00F2
:100C9000012004B0BDE8F0872DE9F04383B01E4683
:100CA000174689460446FFF73DFD94F83D1020297C
:100CB00024D10546206800BF816989071AD5FFF74E
:100CC00031FD411B20681A29F6D381698907F3D5C4
:100CD00000202021206384F83D1084F83E00216C20
:100CE00041F02001216484F83C00022003B0BDE8FB
:100CF000F08300BF94F83C10012903D1022003B017
:100D0000BDE8F083012184F83C100168C90703D1D4
:100D1000016841F001010160016840F2020821F41C
:100D200000610160212184F83D10102184F83E10FB
:100D30000021216467626685618DC0F2010821850A
:100D4000A8F10211E162E16A0A9E11F5803F18BF25
:100D500001291DD1016841F48071016020464FF0E6
:100D6000011100223346009500F0C6FE50B1206804
:100D70000068C00544BF4FF400702064012003B038
:100D8000BDE8F0832069B0F5804F07D1FE2015E063
:100D90000829DFD0216B1229DCD0DFE7062000EA2A
:100DA000D9102168F030086108F10601204632466A
:100DB0002B4600F087FF0028E0D1FF20216800EAE1
:100DC000090008612046414632462B4600F07AFF72
:100DD0000028D3D1002002902068416902918069E7
:100DE0000290029806E000BF204631462A4600F0F5
:100DF00025FE18BB208D68B3204631462A4601F0F7
:100E000015F8D8B9606A2168024612F8013B0B61F7
:100E10006262628D013A6285228D531E23854F697D
:100E20007F07E1D51B04DFD0437802300B6160629D
:100E3000608D01386085901E2085D5E7206C0428E0
:100E40009CD12068016841F400710160012003B069
:100E5000BDE8F0832068016841F400710160202042
:100E600084F83D00002084F83E0084F83C0003B084
:100E7000BDE8F08310B586B045F200410068C4F2C9
:100E8000000100228842049202D006B010BD00BFCB
:100E900041F21804C4F20204206840F00800206007
:100EA000206800F0080001900198C02002901220F4
:100EB00003900320059001F5384002A9FFF738FBA5
:100EC000606840F400106060606800F400100190F9
:100ED000019806B010BD000040F2040040F2D001BD
:100EE000C2F20000C2F2000100780A6810440860F3
:100EF0007047000080B542F20000C4F202000168B1
:100F000041F010010160032000F07AF80F2000F09A
:100F100005F800F027F8002080BD000070B540F211
:100F20000406C2F2000640F228013278C2F2000143
:100F30004FF47A730968B3FBF2F20446B1FBF2F1A5
:100F4000084600F077FB0F2C4FF0010508D838B9A0
:100F50004FF0FF3021460022002500F025F8746094
:100F6000284670BD82B041F21800C4F20200016848
:100F7000022241F001010160016801F001010191CB
:100F80000199416841F080514160406800F0805013
:100F9000009000980420C4F20100016862F31A6115
:100FA000016002B07047000010B54EF60C5CCEF246
:100FB000000CDCF80030C3F3022E8EF00704042C82
:100FC00028BF0424BEF103034FF0FF3E0EFA04F4E1
:100FD00038BF0023A14399400EFA03F39A4311430B
:100FE00000F00F0200F160430901043A03F5644385
:100FF0006244002848BF02F10C03197010BD0000C4
:101000004EF60C51CEF200010A684FF6FF031A406B
:1010100060F30A2242F0806040F0FD700860704783
:10102000002804BF012070472DE9F04381B042F24F
:101030000008C4F202080446D8F800000D4600F08B
:10104000070088420CD2D8F8000020F0070028439F
:10105000C8F80000D8F8000000F00700A8426CD1E2
:10106000206841F204098107C4F2020917D541073B
:1010700005D5D9F8001041F4E061C9F80010010766
:1010800005D5D9F8001041F46051C9F80010D9F81D
:101090000010A26821F0F0011143C9F80010C00748
:1010A00042D1D8F8000000F00700A8420CD9D8F8C7
:1010B000000020F007002843C8F80000D8F800001E
:1010C00000F00700A84238D12068410707D5D9F8B9
:1010D0000010E26821F4E0611143C9F80010000734
:1010E00008D5D9F80000216920F4605040EAC10019
:1010F000C9F80000D9F8002002F00C00082841F2DD
:101100000020C0F27A0051D142F28443C2F38341FD
:10111000C0F60003595CD2033CD440F60010C0F284
:101120003D00484342E000BF606802280AD0012821
:101130002AD159F8041C890308D4012001B0BDE864
:10114000F08300BF59F8041C8901F6D5D9F80010C6
:1011500021F003010843C9F80000FFF7E3FA06464F
:1011600041F28837D9F80000616800F00C00B0EB5C
:10117000810F96D0FFF7D6FA801BB842F2D9032030
:1011800001B0BDE8F08300BF59F8041C8907D4D52D
:10119000DCE700BFD9F8002042F28243C2F34042AC
:1011A000C0F600039A5C4843B0FBF2F0D9F8001097
:1011B00042F26A42C1F30311C0F60002515C40F2F0
:1011C000280220FA01F140F20800C2F20000006893
:1011D000C2F200021160FFF7A1FE002001B0BDE8DD
:1011E000F083000040F2280041F20401C2F2000046
:1011F000C4F202010068096842F27A42C1F3022196
:10120000C0F60002515CC8407047000040F2280060
:1012100041F20401C2F20000C4F202010068096850
:1012200042F27A42C1F3C221C0F60002515CC840CA
:1012300070470000002804BF012070472DE9F041ED
:1012400082B00446007841F20006C007C4F20206EC
:101250000CD0706800F00C00042840F081803068E9
:10126000800303D56068002800F04E812078800755
:101270001BD5706810F00C0F09D0706800F00C00DE
:10128000082840F08B807068C00300F187803068C8
:10129000800703D52069012840F0368130686169F4
:1012A00020F0F80040EAC10030602078000713D435
:1012B000207840072CD4E569002D00F0208170686B
:1012C00000F00C00082840F0AF80012D40F00C81A8
:1012D000012002B0BDE8F081A069002800F08C80F8
:1012E0000020C4F242200121C0F88014FFF71AFA4E
:1012F000054600BF706A800700F1BA80FFF712FA56
:10130000401B0228F6D9032002B0BDE8F08100BFDF
:10131000F0695FEAC00808D4F06940F08050F061DD
:10132000F06900F080500090009847F20007C4F286
:1013300000073868C0054DD4386840F480703860C4
:10134000FFF7F0F9054600BF3868C00542D4FFF743
:10135000E9F9401B6428F7D9032002B0BDE8F08109
:10136000706800F00C00082803D17068C0033FF5D6
:1013700076AF6068002800F00981B0F5A02F00F07A
:101380001D81B0F5803F00F01D81306820F4803071
:101390003060306820F4802017E100BF2069002809
:1013A00040F20000C4F2422000F08C800121016074
:1013B000FFF7B8F9054600BF306880073FF56EAF0C
:1013C000FFF7B0F9401B0228F6D9032002B0BDE8B0
:1013D000F08100BFE068002800F09A80052800F046
:1013E000B180012800F0B280306A20F00100306244
:1013F000306A20F00400ACE00020C4F2422000215A
:10140000C0F88014FFF78EF9054600BF706A8007A8
:101410007FF54EAFFFF786F9401B0228F6D903206F
:1014200002B0BDE8F08100BF0027C4F242270020CF
:101430003866FFF777F9022D05460DD13068800137
:1014400040F1D680FFF76EF9401B02284FF00300F1
:10145000F4D902B0BDE8F081306880014FD5FFF7C4
:1014600061F9401B02284FF00300F5D9F1E700BFF6
:1014700040F22800C2F20000006844F6D351C1F2E5
:101480006201A0FB0101480A019000BF00BF019862
:10149000411E002801913FF40BAF00BF0198411E8F
:1014A000002801913FF404AF00BF0198411E0028BD
:1014B00001913FF4FDAE00BF0198411E002801914B
:1014C000E4D1F5E600210160FFF72CF9054600BFE5
:1014D000306880077FF5E9AEFFF724F9401B02284A
:1014E0004FF00300F4D9B4E77068216A00F4803249
:1014F0008A4209D1616A00F47010884204D1002048
:1015000002B0BDE8F08100BF012002B0BDE8F0816B
:10151000306A20F001003062306A20F0040030624E
:10152000FFF700F9054641F2883700BF306A8007AF
:1015300022D5FFF7F7F8401BB8424FF00300F5D96A
:1015400087E700BF306A40F004003062306A40F044
:1015500001003062FFF7E6F8054641F2883700BF28
:10156000306A800708D4FFF7DDF8401BB842F7D98E
:10157000032002B0BDE8F081B8F1000F3FF59BAE4B
:10158000F06920F08050F06195E600BF306820F4EB
:1015900080303060306820F480203060FFF7C2F87F
:1015A000054600BF306880037FF560AEFFF7BAF8EC
:1015B000401B64284FF00300F4D94AE7306840F438
:1015C00080203060306840F480303060FFF7AAF847
:1015D000054600BF306880033FF548AEFFF7A2F82C
:1015E000401B6428F6D9032002B0BDE8F08100BF9B
:1015F000206AB0F5803F05D17168A26821F40031FE
:10160000114371607168626A21F4741111430843D7
:10161000706001203866FFF785F804463068800165
:101620003FF56DAFFFF77EF8001B02284FF0030077
:10163000F4D90EE7411E0020B0EB116F1CBF012052
:1016400070474EF21002CEF2000251604EF6235166
:10165000CEF20001F0230B700721906011607047FB
:10166000002804BF0120704710B5044690F84100DF
:1016700028B9002084F84000204600F063F82420B8
:1016800084F841002068D4E90212C36823F40053AF
:10169000C360036923F440531A430261D4E904236D
:1016A0001143C268194341F20C639A431143C1606C
:1016B0004169A26921F44071114343F60002C4F26A
:1016C00001029042416103D0FFF78CFD02E000BFB0
:1016D000FFF79CFDD4E90023192148439900B0FB92
:1016E000F1F048F21F5CC5F2EB1CA0FB0C314FF689
:1016F0009C734909C0F6FF7301FB0300322303EB1F
:101700000010A0FB0C03F02000EA531000EB0110C6
:10171000C3F34311084490601069202120F49040E5
:101720001061506920F02A005061D06840F40050E8
:10173000D0600020606484F8411084F84210606337
:1017400010BD000070B586B040F60004C4F201047C
:10175000006804F5405100268842049602D006B085
:1017600070BD00BF41F21800C4F20200016802AD72
:1017700041F480410160016801F4804101910199C7
:10178000016841F0040101600068294600F004008E
:10179000019001984FF40070029002200390032002
:1017A00005902046FEF7C4FE4FF48060CDE90206A6
:1017B000204629460496FEF7BBFE06B070BD000029
:1017C0002DE9F04381B0044690F84100202840F014
:1017D000B180884600294FF0010000F0D6801646FF
:1017E000002A00F0D2800020606421201D4684F889
:1017F0004100FEF797FFA684E684A1680646B1F58E
:10180000805F03D12069002800F0988047464FF0A0
:101810000008E18C2068002900F0968005F101099C
:101820000BE000BF47B317F8011B4160E18C0139A1
:10183000E184E18C002900F0878001680906F1D479
:10184000B9F1000F0AD0EDB1FEF76CFF801BA84282
:1018500018D8206801680906F6D5E3E7016809068B
:10186000E0D4016809065CBF01685FEA0161D9D470
:1018700001680906F2D5D5E738F8021B00276FF397
:101880005F21D2E7206850E8030F216820F4D07070
:1018900041E80302BAB3206850E8030F216820F43E
:1018A000D07041E8030272B3206850E8030F21684A
:1018B00020F4D07041E803022AB3206850E8030FF7
:1018C000216820F4D07041E80302002ADAD11AE03E
:1018D000206850E8050F216820F0010041E805026A
:1018E000DAB1206850E8050F216820F0010041E8D6
:1018F000050292B1206850E8050F216820F0010030
:1019000041E805024AB1206850E8050F216820F03F
:10191000010041E80502002ADAD1202084F84100C4
:1019200084F84200002084F84000032001B0BDE8A4
:10193000F08300BF022001B0BDE8F0830027E18CF6
:10194000206800297FF46AAF0168490619D4FDB107
:10195000691C0DD10168490613D4016849065CBFB2
:1019600001685FEA41610CD401684906F2D508E0DC
:10197000FEF7D8FE801BA8420AD8206800684006FF
:10198000F6D5202084F84100002001B0BDE8F083A6
:10199000206850E8030F216820F4D07041E803026A
:1019A000002A3ED0206850E8030F216820F4D07050
:1019B00041E80302AAB3206850E8030F216820F42D
:1019C000D07041E8030262B3206850E8030F216839
:1019D00020F4D07041E80302002AD9D121E000BFF1
:1019E000206850E8050F216820F0010041E8050259
:1019F000002A3FF492AF206850E8050F216820F0DC
:101A0000010041E80502002A3FF487AF206850E852
:101A1000050F216820F0010041E80502002A3FF48B
:101A20007CAF206850E8050F216820F0010041E8F4
:101A30000502002AD4D170E7FEE7000070B5036804
:101A4000044653F8140F400711D40E46481C29D001
:101A500086BB00BF1868400527D4FEF763FE2368E5
:101A600053F8140F400737D518684007F2D5002007
:101A700070BD00BF18684007F9D41868400514D439
:101A800018684007F3D4186840050ED4186840075A
:101A9000EDD41868400508D4186840074FF00000DE
:101AA00048BF70BD18684005E4D56FF480601860C9
:101AB000042012E0154603E053F8140F4007D6D473
:101AC00018684005F1D4FEF72DFE401B2368B04294
:101AD000F2D958694007EFD4202000212022216349
:101AE00084F83D2084F83E10226C104320640120CD
:101AF00084F83C1070BD00002DE9F04105460068F7
:101B00001E46144601F47F0201338FB242D0DDF845
:101B10001880B2F5803F40F0878040693840C01B94
:101B2000B0FA80F04009A04240F0C8804EB924E0ED
:101B300040693840C01BB0FA80F04009A04240F034
:101B4000BD80FEF7EFFDA0EB08012868B142EFD998
:101B500041693940C91BB1FA81F14909A142E7D174
:101B60009BE000BF40693840C01BB0FA80F04009DC
:101B7000A0424FF0000040F0A280FEF7D3FD28689D
:101B800041693940C91BB1FA81F14909A142E9D142
:101B900083E000BFB2F5803F24D100BF41693940E6
:101BA000C91BB1FA81F14909A14240F0878041691E
:101BB0003940C91BB1FA81F14909A14240F07E8048
:101BC00041693940C91BB1FA81F14909A14275D176
:101BD00041693940C91BB1FA81F14909A142DDD0FF
:101BE0006CE000BF81693940C91BB1FA81F1490934
:101BF000A14263D181693940C91BB1FA81F1490918
:101C0000A1425BD181693940C91BB1FA81F149090F
:101C1000A14253D181693940C91BB1FA81F1490907
:101C2000A142DFD04AE000BF80693840C01BB0FA53
:101C300080F04009A04241D146B923E08069384094
:101C4000C01BB0FA80F04009A04237D1FEF76AFD10
:101C5000A0EB08012868B142F0D981693940C91B5D
:101C6000B1FA81F14909A142E8D116E08069384012
:101C7000C01BB0FA80F04009A0424FF0000018BF2E
:101C8000BDE8F081FEF74EFD286881693940C91B27
:101C9000B1FA81F14909A142E8D10020202128634D
:101CA00085F83D1085F83E00296C41F0200129643B
:101CB00085F83C000120BDE8F08100BF0020BDE8B0
:101CC000F0810000F0B581B0044600681D4643690C
:101CD0008FB203EA0701B94202D1002001B0F0BD82
:101CE0004169164601323FD049053FD4CEB100BF0D
:101CF000FEF718FD411B2068B14203D94169394004
:101D0000B94215D141693940B942E6D04169490526
:101D1000EED52BE041693940B942DED04169490531
:101D200024D4FEF7FFFC206841693940B942F1D064
:101D3000202023E041693940B942CED041694905AC
:101D400014D441693940B942C7D0416949050DD41D
:101D500041693940B942C0D04169490506D4416959
:101D60003940B942B9D041694905E3D5016841F428
:101D7000007101606FF48061416104200021202224
:101D8000216384F83D2084F83E10226C10432064C7
:101D900084F83C10012001B0F0BD000070B504468D
:101DA0000068154650F8143F5A063DD40E4629B92E
:101DB00026E000BF50F8141F490635D40168C90653
:101DC00021D4FEF7AFFC411B2068B142F2D9416932
:101DD0004906EFD400202021206384F83D1084F8C8
:101DE0003E00206C40F0200018E000BFFEF79AFC97
:101DF000206850F8141F4906ECD50168490613D431
:101E00000168C906F2D56FF01001016000202021A1
:101E1000206384F83D1084F83E00206C206400208C
:101E200084F83C00012070BD002070BD70B50368CF
:101E3000044653F8140F000611D40E46481C29D04E
:101E400086BB00BF1868400527D4FEF76BFC2368EB
:101E500053F8140F000637D518680006F2D5002095
:101E600070BD00BF18680006F9D41868400514D486
:101E700018680006F3D4186840050ED418680006E8
:101E8000EDD41868400508D4186800064FF000002B
:101E900048BF70BD18684005E4D56FF480601860D5
:101EA000042012E0154603E053F8140F0006D6D4C0
:101EB00018684005F1D4FEF735FC401B2368B0429A
:101EC000F2D958690006EFD4202000212022216396
:101ED00084F83D2084F83E10226C104320640120D9
:101EE00084F83C1070BD000083B041F21800C4F2C9
:101EF0000200016841F020010160016801F0200149
:101F000002910299016841F004010160016801F049
:101F1000040101910199016841F008010160006824
:101F200000F008000090009803B0704780B540F2C0
:101F3000340045F20041C2F20000C4F2000148F250
:101F4000A06200234FF4804CC0F2010280E80E0032
:101F5000C0E9033CC0E90533C0E90733FEF7E8FBFD
:101F6000002808BF80BDBDE88040FEF7DBBA000056
:101F700080B540F2880043F60001C2F20000C4F2CE
:101F8000010100234FF00C0C4FF4E13280E80E0009
:101F9000C0E90333C0E905C3C361FFF761FB002853
:101FA00008BF80BDBDE88040FEF7BCBAFEE7000078
:101FB000FEE700007047000070470000FEF78CBF8E
:101FC00070470000FEE7000080B582B0019040F24B
:101FD0008800C2F2000001A901223223FFF7F0FBC2
:101FE000019802B080BD000094B0FEF783FF0AACF8
:101FF000201D2421FEF7BFF802200A9001200E9038
:1020000010200F90002520461195FFF713F928B1F5
:10201000EFF3108072B600BFFEE700BF0F20CDE9DE
:10202000050505A80021CDE907550995FEF7F8FF3C
:1020300020B1EFF3108072B6FEE700BFFFF754FF48
:10204000FFF774FFFFF794FF40F23400C2F2000084
:10205000FEF73AFA0FF26808FEF764FB054600BF88
:10206000FEF760FB401BB0F57A7FF9D9FEF7BEF8AA
:102070008146FEF75BF98246FEF7E8F98346FEF7F4
:10208000DDF80446FEF702F90546FEF727F9064695
:10209000FEF774F90746FEF799F9FEF7B7F940F233
:1020A0000C00C2F2000050F8244040465946524607
:1020B0004B468DE8E000039400F016F8CCE700BF33
:1020C00054696D653A253034642D253032642D25F0
:1020D00030326409253032643A253032643A253092
:1020E00032642025730D0A000FB4054B10B503A907
:1020F000044A029800F018F810BC5DF814FB0000C8
:10210000C91F00080000002002E008C8121F08C113
:10211000002AFAD170477047002001E001C1121F68
:10212000002AFBD1704700002DE9FF4F8BB0884695
:102130000546002606E025280BD0DDE90D12904764
:102140006D1C761C28780028F5D10FB03046BDE80C
:10215000F08F0024A146A2460122AE4900E00443CC
:1021600015F8013F203B02FA03F00842F7D1287826
:102170002A2810D06FF02F022878A0F13001092909
:1021800015D809EB890102EB410144F0020400EB90
:1021900001096D1CF0E758F8041B5FEA010903D53B
:1021A00044F40054C9F1000944F002046D1C28787D
:1021B0002E2817D115F8010F44F004042A280ED058
:1021C0006FF02F022878A0F1300109290AD80AEB14
:1021D0008A0102EB410100EB010A6D1CF2E758F89D
:1021E00004AB6D1C28786C280FD006DC4C2817D067
:1021F00068280DD06A2814D104E0742810D07A28F9
:102200000FD10DE044F400140AE044F4801401E01E
:1022100044F440146978814202D104F580146D1CA5
:102220006D1C2878692865D006DC00288DD06328CD
:1022300027D0642806D15DE06E2808D073282AD004
:10224000752877D0DDE90D129047761CE0E0C4F3E5
:102250000250022809D003280DD0D8F80010042815
:102260000DD00E6008F10408D2E0D8F80010F21783
:10227000C1E90062F6E7D8F800100E80F2E70E70B0
:10228000F0E718F8041B8DF8001000208DF801000D
:10229000EB46012003E058F804BB4FF0FF30610724
:1022A0004FF0000701D40AE07F1C57450DDA874242
:1022B000FADB1BF807100029F6D106E07F1C8742E5
:1022C000FCDB1BF807100029F8D1DDE90D23A9EB91
:1022D00007008146214600F0B1F83044C61904E0F9
:1022E000DDE90D121BF8010B90477F1EF8D2214645
:1022F000484688E058F8040BC4F302514FF00A0B2B
:10230000032900D100B2042900D140B2002802DA2A
:1023100040422D2102E0210505D52B218DF8241006
:10232000012104E006E0E10710D02021F6E708AF24
:10233000089113E058F8040BC4F302514FF00A0B54
:10234000032900D180B2042900D1C0B20021EEE7F8
:102350005946FDF71BFF303107F8011D0028F7D162
:10236000ADEB070000F1200B600702D524F48034A8
:1023700001E04FF0010ADA4502DDAAEB0B0000E0B4
:102380000020824600EB0B0108980144A9EB0100F4
:102390000A90E00306D4DDE90D2321460A9800F0F7
:1023A0004DF806444FF0000908E009A911F80900AA
:1023B000DDE90D12904709F10109761C089989455C
:1023C000F3DBE0030CD5DDE90D2321460A9800F08C
:1023D00035F8064404E0DDE90D1230209047761C04
:1023E000BAF10001AAF1010AF5DC05E0DDE90D1200
:1023F00017F8010B9047761CBBF10001ABF1010B04
:10240000F4DC0A982146DDE90D2300F005F80644C6
:102410006D1C97E6092801002DE9F04104460025CE
:102420001E461746880404D405E039462020B047EC
:102430006D1C641EF9D52846BDE8F0812DE9F041F8
:10244000044600251E469046C80301D5302700E00B
:102450002027880404D505E041463846B0476D1C66
:10246000641EF9D52846BDE8F08100000000000098
:102470000000010203040607080900000000010231
:102480000304010202030405060708090A0B0C0DE8
:102490000E0F1010467269646179004D6F6E6461B1
:1024A000790053756E64617900536174757264616B
:1024B00079005765646E657364617900547565735E
:1024C000646179005468757273646179000000007A
:1024D000F02400080000002030000000082100085F
:1024E0002025000830000020A80400001821000862
:1024F000000000000100000010000000A2240008FD
:102500009B240008BC240008B2240008C42400084E
:1025100094240008A92400080024F400000000000E
:0400000508000131BD
:00000001FF
