:020000040800F2
:10000000C805002045010008292800085D1E0008D9
:100010000D270008990100088D3500080000000038
:100020000000000000000000000000007D32000819
:10003000D104000800000000793200083D350008B6
:100040005F0100085F0100085F0100085F01000810
:100050005F0100085F0100085F0100085F01000800
:100060005F0100085F0100085F0100085F010008F0
:100070005F0100085F0100085F0100085F010008E0
:100080005F0100085F0100085F0100085F010008D0
:100090005F0100085F0100085F0100085F010008C0
:1000A0005F0100085F0100085F0100085F010008B0
:1000B0005F0100085F0100085F0100085F010008A0
:1000C0005F0100085F0100085F0100085F01000890
:1000D0005F0100085F0100085F0100085F01000880
:1000E0005F0100085F0100085F0100085F01000870
:1000F0005F0100085F0100085F0100085F01000860
:100100005F0100085F0100085F0100085F0100084F
:100110005F0100085F0100084535000851350008FF
:100120005F0100085F0100085F0100085F0100082F
:10013000DFF80CD000F018F80048004755380008E8
:10014000C80500200648804706480047FEE7FEE74E
:10015000FEE7FEE7FEE7FEE7FEE7FEE7FEE7FEE777
:1001600041350008310100081CB5094800900948D4
:1001700001900546009C06E0E06840F0010394E829
:10018000070098471034AC42F6D3FFF7D5FF0000C4
:100190005439000874390008FEE70000B0B582B099
:1001A00040F21404C2F20004042120688DF8071004
:1001B0004FF47A750DF10702D0210123009500F06C
:1001C000A7FD20680DF10602D0210123009500F063
:1001D0009DFB9DF80600010901EB810100F00F0075
:1001E00000EB4100C0B202B0B0BD0000B0B582B0BB
:1001F00040F21404C2F20004032120688DF80710B5
:100200004FF47A750DF10702D0210123009500F01B
:100210007FFD20680DF10602D0210123009500F03A
:1002200075FB9DF80600010901EB810100F00F004C
:1002300000EB4100C0B202B0B0BD0000B0B582B06A
:1002400040F21404C2F20004022120688DF8071065
:100250004FF47A750DF10702D0210123009500F0CB
:1002600057FD20680DF10602D0210123009500F012
:100270004DFB9DF80600C0F3011141EA810100F039
:100280000F0000EB410002B0B0BD0000B0B582B07D
:1002900040F21404C2F20004012120688DF8071016
:1002A0004FF47A750DF10702D0210123009500F07B
:1002B0002FFD20680DF10602D0210123009500F0EA
:1002C00025FB9DF80600010901EB810100F00F00FC
:1002D00000EB4100C0B202B0B0BD0000B0B582B0CA
:1002E00040F21404C2F20004052120688DF80710C2
:1002F0004FF47A750DF10702D0210123009500F02B
:1003000007FD20680DF10602D0210123009500F0C1
:10031000FDFA9DF80600010901EB810100F00F00D4
:1003200000EB4100C0B202B0B0BD0000B0B582B079
:1003300040F21404C2F20004002120688DF8071076
:100340004FF47A750DF10702D0210123009500F0DA
:10035000DFFC20680DF10602D0210123009500F09A
:10036000D5FA9DF80600C0F3021101EB810100F0FF
:100370000F0000EB410002B0B0BD0000B0B582B08C
:1003800040F21404C2F20004082120688DF807101E
:100390004FF47A750DF10702D0210123009500F08A
:1003A000B7FC20680DF10602D0210123009500F072
:1003B000ADFA9DF9060002B0B0BD0000B0B582B044
:1003C00040F21404C2F20004092120688DF80710DD
:1003D0004FF47A750DF10702D0210123009500F04A
:1003E00097FC20680DF10602D0210123009500F052
:1003F0008DFA9DF8060002B0B0BD000070B582B065
:1004000040F21405C2F20005102128688DF805108D
:100410004FF47A740DF10502D0210123009400F00D
:1004200077FC286801AAD0210123009400F06EFA1D
:10043000062128689DF804608DF807100DF1070269
:10044000D0210123009400F063FC28680DF106021E
:10045000D0210123009400F059FA9DF8060001090B
:1004600001EB810100F00F0000EB4100C0B26421FC
:1004700006FB010002B070BD70B582B040F21405F9
:10048000C2F2000500264FF47A740DF10502D02166
:10049000012328608DF80560009400F039FC28687D
:1004A00001AAD0210123009400F030FA9DF8040045
:1004B0000DF1060200F07F0128688DF80710D021A9
:1004C00002238DF80660009400F022FC02B070BD9B
:1004D00070470000EFF3108072B600BFFEE7000027
:1004E00080B5FFF75BFE40F21801C2F20001087010
:1004F000FFF7F4FE40F2B011C2F200010870FFF7FE
:100500007DFF40F2C411C2F200010880FFF76EFEC9
:1005100040F21901C2F200010870FFF78FFE40F2AD
:100520007001C2F200010870FFF7B0FE40F2A011A6
:10053000C2F200010870FFF7F9FE40F2B111C2F2F9
:1005400000010870FFF71AFF40F2C611C2F2000165
:100550000870FFF733FF40F2C711C2F200010870C4
:1005600080BD0000B0B5044600F018F9054640F221
:100570000000C2F200000078611C18BF044400BFF4
:1005800000F00CF9401BA042FAD3B0BD2DE9F04FAA
:1005900082B00E68002E00F0EF80A0F18042A2F53C
:1005A0008432870547EA922241F6004740F2004E26
:1005B000C4F201070625C4F2010EB84208BF0525A2
:1005C00000244FF001080F234FF0000A4FF0000BFA
:1005D000052A38BF1546009509E000BF0E680AF1EC
:1005E000010A36FA0AF204F1040400F0C58008FAA0
:1005F0000AFC16EA0C09F1D04E684FF6FF72C1F200
:100600001002964212DC122E56D8DFE806F0350BA7
:100610004549555555555555555555555555554DAE
:10062000510000BFD1F80CB046E000BF4FF6FF729A
:10063000C1F2210296420FDC0022C1F21102964261
:100640001AD00022C1F21202964215D00022C1F245
:100650002102964210D02FE00022C1F222029642DF
:100660000AD00022C1F23102964205D00022C1F226
:100670003202964220D100BF8A684AB1012A14BFD3
:10068000C0F814C0C0F810C04FF0080B14E000BF51
:100690004FF0040B10E000BFCA6802F1080B0BE03A
:1006A0004FF0000B08E000BFCA6802F1040B03E042
:1006B000CA6802F10C0B00BF22460646B9F5807FDE
:1006C00024BF203A0436376803FA02F5AF430BFA29
:1006D00002F23A433260CA79D2067FF57FAF41F227
:1006E0001807C4F202073A684FF6084342F00102C5
:1006F0003A603A68CFF6FF7302F001020192019A64
:100700002AF0030272440F25D75804F00C06B540B6
:10071000AF43009D05FA06F63743D7504E6840F2C6
:100720000C45F202DEF8082054BF22EA090242EA30
:100730000902C4F20105CEF808202A68B70254BFA6
:1007400022EA090242EA09022A60DEF80420B7031D
:1007500054BF22EA090242EA0902CEF804200F231C
:10076000DEF80020F70354BF22EA090242EA090238
:10077000CEF8002032E700BF02B0BDE8F08F0000E5
:10078000C26802EA0103914341EA034101617047F3
:10079000002A08BF090401617047000040F2C01040
:1007A000C2F2000000687047002804BF01207047B3
:1007B000F0B581B0044690F83D0028B9002084F8D7
:1007C0003C00204600F040FC242084F83D002068D6
:1007D000016821F001010160016841F400410160FC
:1007E000016821F40041016000F0F8FD636848F2FF
:1007F000A16CC0F2010C40F60011C0F23D0163454E
:100800003CBF48F28041C0F21E01884202D2012062
:1008100001B0F0BD4DF68361C4F21B31A0FB0112A3
:100820002168970CD1F804E04FF496762EF03F053E
:1008300045EA92454D60774348F638160D6AC0F296
:100840004106A7FB067625F03F07634538BF960CA7
:10085000721C3A430A62CA6948F2A0664CF6FF77F6
:10086000C0F20106B34222EA07020BD801385B004E
:10087000B0FBF3F001306FF31F30042898BF042061
:100880001BE000BFA768013857B119277B43B0FBB5
:10089000F3F001306FF31F3070B100F5804007E0D6
:1008A00003EB4303B0FBF3F001306FF31F3018B1DB
:1008B00000F5004001E000BF01201043C861086856
:1008C000D4E9072320F0C00010431843086088686B
:1008D00048F2FF3204F10C0790438CCF18431043C9
:1008E000A6698860C86820F0FF0038433043C860BC
:1008F000086840F00100086000202021206484F88E
:100900003D10206384F83E0001B0F0BD2DE9F047B2
:1009100084B0044600201F46164689460290FFF721
:100920003DFF94F83D10202924D10546206800BFE2
:10093000816989071AD5FFF731FF411B20681A2901
:10094000F6D381698907F3D500202021206384F83C
:100950003D1084F83E00216C41F02001216484F8B0
:100960003C00022004B0BDE8F08700BF94F83C10C2
:10097000012903D1022004B0BDE8F087012184F8E9
:100980003C100168C90703D1016841F00101016011
:100990000168DDF8308021F400610160222184F8D3
:1009A0003D10102184F83E100021216466626785A5
:1009B000618D0227C0F201072185A7F10211E162D2
:1009C000E16A026811F5803F42F48062026018BF5C
:1009D00001293DD1016841F48071016020464FF04A
:1009E000011100224346009501F0FCFA50B1206845
:1009F0000068C00544BF4FF400702064012004B0BB
:100A0000BDE8F0872069B0F5804F27D149F001009B
:100A1000C0B2216842460861204639462B4601F0A3
:100A2000C7FB0028EAD1208D02284BD001285FD0D7
:100A3000002840F0738000200390206841690391F2
:100A4000816903910399016841F40071016071E0CB
:100A50000829BFD0216B1129BCD0BFE7062000EACE
:100A6000D916206806F1F0010161B91D2046424601
:100A70002B4601F09DFB0028C0D120685FFA89F168
:100A800001612046394642462B4601F091FB002881
:100A9000B4D10020039020680022416943460391AD
:100AA000816903910399016841F4807101602046D6
:100AB0004FF00111009501F095FA002897D146F00A
:100AC000F100A6E72068016841F400610160EFF3DE
:100AD000108072B6002003902068416903918169FB
:100AE00003910399016821F48061016062B621E0FD
:100AF0002068016821F480610160EFF3108072B614
:100B00000020039020684169039181690391039952
:100B1000016841F40071016062B60BE02068016871
:100B200041F4806101600021039141690391806972
:100B300003900398208D002800F0CC8040F2080933
:100B40004BF2895A0237C2F20009C1F2F84A232651
:100B50000EE000BF10690870606A218D013060628C
:100B6000481E2085618D01396185010400F0B28045
:100B700080B203280CD802282CD001284AD1204664
:100B800041462A4601F080FB002800F09F8035E7AF
:100B9000204641462A4601F077FB00287FF42EAF1D
:100BA0002068616A00690870606A2268411C208DB3
:100BB000616201382085638D013B638553695B0762
:100BC000D3D580B20328C5D1106820F480601060AE
:100BD000C0E700BF2046394600224346009501F099
:100BE00001FA00287FF40AAFEFF3108072B6206894
:100BF000616A026842F40072026000690870606A0B
:100C0000218D01306062481E2085608D013860852D
:100C100062B65BE02046394600224346009501F06B
:100C2000E1F900287FF4EAAE2068016821F48061D0
:100C30000160EFF3108072B62068616A0069087085
:100C4000606A218D0130013960622185618D013931
:100C50006185D9F80010C908A1FB0A12110A714375
:100C60000291029901390291029900293ED021682E
:100C70004A6952071AD40299013902910299A9B31B
:100C800021684A69520711D40299013902910299E7
:100C900061B321684A69520708D402990139029167
:100CA000029919B321684A695207DAD50A6842F4F1
:100CB00000720A6009690170606A218D013060620A
:100CC000481E2085608D0138608562B62068616AA3
:100CD000006940E7202084F83D00002084F83E00B1
:100CE00084F83C0004B0BDE8F08700BF002020215C
:100CF000206384F83D1084F83E00216C41F020010F
:100D0000216462B684F83C00012004B0BDE8F0879D
:100D10002DE9F04383B01E46174689460446FFF787
:100D20003DFD94F83D10202924D10546206800BFE0
:100D3000816989071AD5FFF731FD411B20681A29FF
:100D4000F6D381698907F3D500202021206384F838
:100D50003D1084F83E00216C41F02001216484F8AC
:100D60003C00022003B0BDE8F08300BF94F83C10C3
:100D7000012903D1022003B0BDE8F083012184F8EA
:100D80003C100168C90703D1016841F0010101600D
:100D9000016840F2020821F400610160212184F819
:100DA0003D10102184F83E100021216467626685A1
:100DB000618DC0F201082185A8F10211E162E16AAA
:100DC0000A9E11F5803F18BF01291DD1016841F429
:100DD0008071016020464FF00111002233460095DA
:100DE00001F000F950B120680068C00544BF4FF41D
:100DF00000702064012003B0BDE8F0832069B0F5E5
:100E0000804F07D1FE2015E00829DFD0216B122981
:100E1000DCD0DFE7062000EAD9102168F030086155
:100E200008F10601204632462B4601F0C1F90028A0
:100E3000E0D1FF20216800EA090008612046414610
:100E400032462B4601F0B4F90028D3D1002002909D
:100E500020684169029180690290029806E000BF13
:100E6000204631462A4601F05FF818BB208D68B352
:100E7000204631462A4601F04FFAD8B9606A216807
:100E8000024612F8013B0B616262628D013A628593
:100E9000228D531E23854F697F07E1D51B04DFD0C8
:100EA000437802300B616062608D01386085901E6E
:100EB0002085D5E7206C04289CD12068016841F486
:100EC00000710160012003B0BDE8F0832068016873
:100ED00041F400710160202084F83D00002084F876
:100EE0003E0084F83C0003B0BDE8F0832DE9F043F8
:100EF00083B0994616460F460446FFF74FFC94F818
:100F00003D10202924D10546206800BF816989074A
:100F10001AD5FFF743FC411B20681A29F6D38169D3
:100F20008907F3D500202021206384F83D1084F840
:100F30003E00216C41F02001216484F83C00022035
:100F400003B0BDE8F08300BF94F83C10012903D141
:100F5000022003B0BDE8F083012284F83C2003683E
:100F6000DDE90B180A9ADB0703D1036843F001039C
:100F70000360036823F400630360212084F83D00CC
:100F8000402084F83E000020206462626185608D0C
:100F9000394620850020CFF6FF70E06220463246B9
:100FA0004B46CDE9008500F05BFF18B1012003B08E
:100FB000BDE8F083208D98B9204641462A4600F0CE
:100FC000B3FF88B3206C0428F0D12068016841F495
:100FD00000710160012003B0BDE8F0830004EBD094
:100FE000204641462A4601F097F90028EAD1616A75
:100FF0002268084610F8013B1361238D6062581E79
:101000002085678D013F678557697F07E6D507040F
:10101000E4D048781061881C6062981E2085618D3C
:1010200001396185DAE700BF2068016841F4007189
:101030000160202084F83D00002084F83E0084F800
:101040003C0003B0BDE8F08310B586B045F2004126
:101050000068C4F2000100228842049202D006B067
:1010600010BD00BF41F21804C4F20204206840F031
:1010700008002060206800F0080001900198C0205E
:101080000290122003900320059001F5384002A938
:10109000FFF77CFA606840F400106060606800F45C
:1010A00000100190019806B010BD000040F2000051
:1010B00040F2C011C2F20000C2F2000100780A68DA
:1010C000104408607047000080B542F20000C4F28E
:1010D0000200016841F010010160032000F08CF86B
:1010E0000F2000F005F800F027F8002080BD000078
:1010F00070B540F20006C2F2000640F208013278F4
:10110000C2F200014FF47A730968B3FBF2F20446AD
:10111000B1FBF2F1084600F089FB0F2C4FF00105FE
:1011200008D838B94FF0FF3021460022002500F0E2
:1011300037F87460284670BD82B041F21800C4F2DE
:1011400002000168022241F001010160016801F022
:10115000010101910199416841F08051416040686D
:1011600000F08050009000980420C4F20100016853
:1011700062F31A61016002B070470000002848BFA6
:10118000704700F01F01012202FA01F11C2202EA5D
:10119000D0004EF20012CEF20002815070470000E3
:1011A00010B54EF60C5CCEF2000CDCF80030C3F348
:1011B000022E8EF00704042C28BF0424BEF1030382
:1011C0004FF0FF3E0EFA04F438BF0023A1439940CC
:1011D0000EFA03F39A43114300F00F0200F160434B
:1011E0000901043A03F564436244002848BF02F150
:1011F0000C03197010BD00004EF60C51CEF2000128
:101200000A684FF6FF031A4060F30A2242F080603A
:1012100040F0FD7008607047002804BF012070474F
:101220002DE9F04381B042F20008C4F202080446FE
:10123000D8F800000D4600F0070088420CD2D8F81C
:10124000000020F007002843C8F80000D8F800008C
:1012500000F00700A8426CD1206841F20409810720
:10126000C4F2020917D5410705D5D9F8001041F499
:10127000E061C9F80010010705D5D9F8001041F464
:101280006051C9F80010D9F80010A26821F0F001EF
:101290001143C9F80010C00742D1D8F8000000F08F
:1012A0000700A8420CD9D8F8000020F00700284316
:1012B000C8F80000D8F8000000F00700A84238D1B4
:1012C0002068410707D5D9F80010E26821F4E061F1
:1012D0001143C9F80010000708D5D9F800002169AA
:1012E00020F4605040EAC100C9F80000D9F800209D
:1012F00002F00C00082841F20020C0F27A0051D11F
:1013000043F64213C2F38341C0F60003595CD20393
:101310003CD440F60010C0F23D00484342E000BF1C
:10132000606802280AD001282AD159F8041C8903D0
:1013300008D4012001B0BDE8F08300BF59F8041CB7
:101340008901F6D5D9F8001021F003010843C9F846
:101350000000FFF723FA064641F28837D9F800006B
:10136000616800F00C00B0EB810F96D0FFF716FA21
:10137000801BB842F2D9032001B0BDE8F08300BF62
:1013800059F8041C8907D4D5DCE700BFD9F8002040
:1013900043F64013C2F34042C0F600039A5C484350
:1013A000B0FBF2F0D9F8001043F62812C1F3031194
:1013B000C0F60002515C40F2080220FA01F140F24E
:1013C0000400C2F200000068C2F200021160FFF7E0
:1013D0008FFE002001B0BDE8F083000040F208005D
:1013E00041F20401C2F20000C4F20201006809687F
:1013F00043F63812C1F30221C0F60002515CC84026
:101400007047000040F2080041F20401C2F20000FF
:10141000C4F202010068096843F63812C1F3C22120
:10142000C0F60002515CC84070470000002804BFAD
:10143000012070472DE9F04182B00446007841F266
:101440000006C007C4F202060CD0706800F00C0061
:10145000042840F081803068800303D5606800284C
:1014600000F04E81207880071BD5706810F00C0FBB
:1014700009D0706800F00C00082840F08B8070687C
:10148000C00300F187803068800703D520690128F8
:1014900040F036813068616920F0F80040EAC10010
:1014A00030602078000713D4207840072CD4E569F9
:1014B000002D00F02081706800F00C00082840F03A
:1014C000AF80012D40F00C81012002B0BDE8F08119
:1014D000A069002800F08C800020C4F24220012185
:1014E000C0F88014FFF75AF9054600BF706A8007FC
:1014F00000F1BA80FFF752F9401B0228F6D9032009
:1015000002B0BDE8F08100BFF0695FEAC00808D40E
:10151000F06940F08050F061F06900F08050009078
:10152000009847F20007C4F200073868C0054DD4A0
:10153000386840F480703860FFF730F9054600BF26
:101540003868C00542D4FFF729F9401B6428F7D951
:10155000032002B0BDE8F081706800F00C0008289C
:1015600003D17068C0033FF576AF6068002800F0D3
:101570000981B0F5A02F00F01D81B0F5803F00F08B
:101580001D81306820F480303060306820F4802085
:1015900017E100BF2069002840F20000C4F2422099
:1015A00000F08C8001210160FFF7F8F8054600BFCC
:1015B000306880073FF56EAFFFF7F0F8401B022858
:1015C000F6D9032002B0BDE8F08100BFE068002832
:1015D00000F09A80052800F0B180012800F0B28068
:1015E000306A20F001003062306A20F00400ACE084
:1015F0000020C4F242200021C0F88014FFF7CEF88A
:10160000054600BF706A80077FF54EAFFFF7C6F84A
:10161000401B0228F6D9032002B0BDE8F08100BFCC
:101620000027C4F2422700203866FFF7B7F8022DE2
:1016300005460DD13068800140F1D680FFF7AEF845
:10164000401B02284FF00300F4D902B0BDE8F0813E
:10165000306880014FD5FFF7A1F8401B02284FF0FA
:101660000300F5D9F1E700BF40F20800C2F2000024
:10167000006844F6D351C1F26201A0FB0101480A9F
:10168000019000BF00BF0198411E002801913FF466
:101690000BAF00BF0198411E002801913FF404AF39
:1016A00000BF0198411E002801913FF4FDAE00BF2C
:1016B0000198411E00280191E4D1F5E60021016066
:1016C000FFF76CF8054600BF306880077FF5E9AE8C
:1016D000FFF764F8401B02284FF00300F4D9B4E789
:1016E0007068216A00F480328A4209D1616A00F48C
:1016F0007010884204D1002002B0BDE8F08100BF24
:10170000012002B0BDE8F081306A20F001003062B3
:10171000306A20F004003062FFF740F8054641F2DD
:10172000883700BF306A800722D5FFF737F8401BA3
:10173000B8424FF00300F5D987E700BF306A40F0A8
:1017400004003062306A40F001003062FFF726F892
:10175000054641F2883700BF306A800708D4FFF79A
:101760001DF8401BB842F7D9032002B0BDE8F08154
:10177000B8F1000F3FF59BAEF06920F08050F061AA
:1017800095E600BF306820F480303060306820F487
:1017900080203060FFF702F8054600BF3068800304
:1017A0007FF560AEFEF7FAFF401B64284FF00300A0
:1017B000F4D94AE7306840F480203060306840F463
:1017C00080303060FEF7EAFF054600BF30688003D6
:1017D0003FF548AEFEF7E2FF401B6428F6D9032030
:1017E00002B0BDE8F08100BF206AB0F5803F05D1AE
:1017F0007168A26821F40031114371607168626AF6
:1018000021F4741111430843706001203866FEF71B
:10181000C5FF0446306880013FF56DAFFEF7BEFF9F
:10182000001B02284FF00300F4D90EE7411E0020F0
:10183000B0EB116F1CBF012070474EF21002CEF2C8
:10184000000251604EF62351CEF20001F0230B70DE
:1018500007219060116070477047000070470000DA
:1018600090F83C20012A4FF0020242D010B580F8D7
:101870003D200268D2F804E0D2F808C00C682EF0CF
:101880007003234340F6FF34C4F20004A2425360C5
:1018900010DCB2F1804F1FD040F20043C4F20003CD
:1018A0009A4219D040F60003C4F200039A4213D0C2
:1018B00017E000BF40F60043C4F200039A420BD089
:1018C00043F20043C4F201039A4205D042F60043BA
:1018D000C4F201039A4204D149682CF080031943F1
:1018E00091600121002280F83D1080F83C20BDE885
:1018F0001040104670470000002804BF01207047C8
:1019000010B5044690F83D0028B9002084F83C004A
:10191000204600F085F8022084F83D00206840F65B
:10192000FF330268C4F2000343F2004C9842C4F251
:10193000010C21DCB0F1804F2CD040F20041C4F208
:101940000001884226D040F60001C4F2000188421E
:1019500020D0984224DCB0F1804F2FD040F20041DB
:10196000C4F20001884229D040F60001C4F200010F
:10197000884223D026E000BF40F60041C4F20001B7
:10198000884207D0604505D042F60041C4F201010B
:101990008842DED1A16822F070020A439842DADD63
:1019A00040F60041C4F20001884207D0604505D0EE
:1019B00042F60041C4F20101884203D1216922F4B8
:1019C00040720A43A36922F08001D4F804E0E2687F
:1019D000194360450160C262C0F828E005D042F6B4
:1019E0000041C4F20101884201D161690163012112
:1019F0004161002084F8461084F83E1084F83F10BE
:101A000084F8401084F8411084F8421084F84310A0
:101A100084F8441084F8451084F83D1010BD00008F
:101A200010B582B0006841F20041C4F20001884262
:101A300014D041F20001C4F20001884228D141F2E1
:101A40001C00C4F202000168362441F0100101605C
:101A5000006800F01000019001980DE041F21C00B8
:101A6000C4F202000168372441F0200101600068DF
:101A700000F0200000900098204600210022FFF78F
:101A80008FFB204602B0BDE81040FFF777BB00BFD8
:101A900002B010BD90F83D1001291CBF0120704715
:101AA000022180F83D10006840F6FF32C168C4F2A0
:101AB0000002904241F00101C1600FDCB0F1804FA3
:101AC0001ED040F20041C4F20001884218D040F616
:101AD0000001C4F20001884212D018E040F6004133
:101AE000C4F2000188420BD043F20041C4F201016C
:101AF000884205D042F60041C4F20101884206D175
:101B0000816801F00701062904BF002070470168C1
:101B100041F00101016000207047000070470000A3
:101B200010B5016804460869800744BFC8685FEAC9
:101B3000807039D40869400744BFC8685FEA4070C4
:101B40003ED40869000744BFC8685FEA007045D406
:101B50000869C00644BFC8685FEAC0604AD4086923
:101B6000C0071CBFC8685FEAC07051D10869000691
:101B700044BFC8685FEA006052D40869400644BFA9
:101B8000C8685FEA406053D40869800646BFC868E9
:101B90005FEA806010BD6FF0200220460A61BDE858
:101BA0001040FFF75BBE00BF6FF00200086101202C
:101BB00020778869800743D02046FFF7AFFF45E0D4
:101BC0006FF00400086102202077886910F4407FDC
:101BD00040D02046FFF7A2FF42E000BF6FF00800B0
:101BE000086104202077C86980073DD02046FFF7B0
:101BF00095FF3FE06FF01000086108202077C8696A
:101C000010F4407F3AD02046FFF788FF3CE000BF49
:101C10006FF001000861204600F03EF82168A5E75A
:101C20006FF0800008612046FFF716FE2168A4E7E8
:101C30006FF040000861204600F03CF82168A3E7FF
:101C4000204600F025F8204600F024F82168002006
:101C500020776FE7204600F01BF8204600F01AF8C6
:101C60002168002020776CE7204600F011F820461C
:101C700000F010F821680020207769E7204600F086
:101C800007F8204600F006F821680020207766E774
:101C9000704700007047000040F2C801C2F2000126
:101CA000884218BF704740F60040C4F2010004218A
:101CB000FEF766BD70470000002804BF0120704792
:101CC00010B5044690F8410028B9002084F840007F
:101CD000204600F063F8242084F841002068D4E90D
:101CE0000212C36823F40053C360036923F4405312
:101CF0001A430261D4E904231143C268194341F233
:101D00000C639A431143C1604169A26921F4407197
:101D1000114343F60002C4F201029042416103D034
:101D2000FFF75CFB02E000BFFFF76CFBD4E9002388
:101D3000192148439900B0FBF1F048F21F5CC5F24D
:101D4000EB1CA0FB0C314FF69C734909C0F6FF73E6
:101D500001FB0300322303EB0010A0FB0C03F02077
:101D600000EA531000EB0110C3F3431108449060E4
:101D70001069202120F490401061506920F02A0061
:101D80005061D06840F40050D0600020606484F856
:101D9000411084F84210606310BD000070B586B039
:101DA000006844F20041C4F2000188424FF0000193
:101DB000CDE90411CDE9021120D043F60001C4F2AF
:101DC0000101884248D141F21800C4F202000168C2
:101DD0004FF4806641F480410160016801F4804164
:101DE00001910199016841F004010160006800F06F
:101DF0000400019001984FF4007017E041F21800C0
:101E0000C4F202004168082641F400314160416893
:101E100001F4003101910199016841F00401016070
:101E2000006800F004000190019804200290022054
:101E300040F6000403900320C4F2010402AD0590B3
:101E400020462946FEF7A2FB0020CDE903002046EC
:101E500029460296FEF79AFB06B070BDFEE7000029
:101E60002DE9F04383B0044600680D4601680A9FDF
:101E70000B9E41F4807199469046016020464FF0D8
:101E8000011100223B46009600F0ACF850B12068EA
:101E90000068C00544BF4FF400702064032003B005
:101EA000BDE8F083206805F0FE0101610221C0F267
:101EB000010120463A46334600F07AF920B101206C
:101EC00003B0BDE8F08300BF0020029020683246D6
:101ED000416902918069394602900298204600F0DB
:101EE0001BFA58B1206C0428E9D12068016841F43C
:101EF00000710160012003B0BDE8F0832068B9F1F2
:101F0000010F0AD04FEA18210161204639463246B6
:101F100000F002FA0028E5D120685FFA88F101613B
:101F2000002003B0BDE8F08370B50368044653F8A1
:101F3000140F400711D40E46481C29D086BB00BFA1
:101F40001868400527D4FEF729FC236853F8140FBE
:101F5000400737D518684007F2D5002070BD00BF94
:101F600018684007F9D41868400514D41868400769
:101F7000F3D4186840050ED418684007EDD41868EB
:101F8000400508D4186840074FF0000048BF70BDF6
:101F900018684005E4D56FF480601860042012E0F2
:101FA000154603E053F8140F4007D6D418684005CF
:101FB000F1D4FEF7F3FB401B2368B042F2D9586915
:101FC0004007EFD4202000212022216384F83D2007
:101FD00084F83E10226C10432064012084F83C10E9
:101FE00070BD00002DE9F041054600681E4614460C
:101FF00001F47F0201338FB242D0DDF81880B2F5D0
:10200000803F40F0878040693840C01BB0FA80F0C4
:102010004009A04240F0C8804EB924E040693840F1
:10202000C01BB0FA80F04009A04240F0BD80FEF72E
:10203000B5FBA0EB08012868B142EFD941693940EE
:10204000C91BB1FA81F14909A142E7D19BE000BF68
:1020500040693840C01BB0FA80F04009A0424FF000
:10206000000040F0A280FEF799FB286841693940E2
:10207000C91BB1FA81F14909A142E9D183E000BF4E
:10208000B2F5803F24D100BF41693940C91BB1FA84
:1020900081F14909A14240F0878041693940C91B5B
:1020A000B1FA81F14909A14240F07E80416939408D
:1020B000C91BB1FA81F14909A14275D14169394081
:1020C000C91BB1FA81F14909A142DDD06CE000BF22
:1020D00081693940C91BB1FA81F14909A14263D133
:1020E00081693940C91BB1FA81F14909A1425BD12B
:1020F00081693940C91BB1FA81F14909A14253D123
:1021000081693940C91BB1FA81F14909A142DFD087
:102110004AE000BF80693840C01BB0FA80F0400937
:10212000A04241D146B923E080693840C01BB0FAD3
:1021300080F04009A04237D1FEF730FBA0EB080148
:102140002868B142F0D981693940C91BB1FA81F1DF
:102150004909A142E8D116E080693840C01BB0FAB5
:1021600080F04009A0424FF0000018BFBDE8F081A8
:10217000FEF714FB286881693940C91BB1FA81F167
:102180004909A142E8D100202021286385F83D10AB
:1021900085F83E00296C41F02001296485F83C0057
:1021A0000120BDE8F08100BF0020BDE8F081000003
:1021B000F0B581B0044600681D4643698FB203EA5A
:1021C0000701B94202D1002001B0F0BD41691646B5
:1021D00001323FD049053FD4CEB100BFFEF7DEFA51
:1021E000411B2068B14203D941693940B94215D138
:1021F00041693940B942E6D041694905EED52BE045
:1022000041693940B942DED04169490524D4FEF71D
:10221000C5FA206841693940B942F1D0202023E055
:1022200041693940B942CED04169490514D4416968
:102230003940B942C7D0416949050DD44169394097
:10224000B942C0D04169490506D441693940B94213
:10225000B9D041694905E3D5016841F400710160D5
:102260006FF480614161042000212022216384F801
:102270003D2084F83E10226C1043206484F83C100A
:10228000012001B0F0BD000070B50446006815469D
:1022900050F8143F5A063DD40E4629B926E000BF37
:1022A00050F8141F490635D40168C90621D4FEF739
:1022B00075FA411B2068B142F2D941694906EFD451
:1022C00000202021206384F83D1084F83E00206C1B
:1022D00040F0200018E000BFFEF760FA206850F8D8
:1022E000141F4906ECD50168490613D40168C906D4
:1022F000F2D56FF01001016000202021206384F8E6
:102300003D1084F83E00206C2064002084F83C00DE
:10231000012070BD002070BD70B50368044653F8FD
:10232000140F000611D40E46481C29D086BB00BFEE
:102330001868400527D4FEF731FA236853F8140FC4
:10234000000637D518680006F2D5002070BD00BF22
:1023500018680006F9D41868400514D418680006F7
:10236000F3D4186840050ED418680006EDD4186838
:10237000400508D4186800064FF0000048BF70BD43
:1023800018684005E4D56FF480601860042012E0FE
:10239000154603E053F8140F0006D6D4186840051C
:1023A000F1D4FEF7FBF9401B2368B042F2D958691B
:1023B0000006EFD4202000212022216384F83D2054
:1023C00084F83E10226C10432064012084F83C10F5
:1023D00070BD00002DE9F04F85B041F21800C4F245
:1023E0000200016840F6000741F040010160016809
:1023F000C4F2010701F0400101910199016807F55C
:10240000805541F0100101600168012201F01001C6
:10241000019101990168012641F004010160016800
:1024200001F0040101910199016841F00801016086
:10243000016801F0080101910199016841F0200152
:102440000160006845F2FC5100F020000190019805
:102450002846FEF79DF907F50064204642F2130175
:102460000122FEF795F93846F0210122FEF790F996
:1024700007F5806A50464DF203410122FEF788F9C4
:102480005046042100224FF0000BFEF781F907F5BA
:10249000406948464FF4A0410022FEF779F92046F2
:1024A0004FF4A0710022FEF773F938464FF4106123
:1024B0000022FEF76DF9542001A901AF81E841081F
:1024C0004FF0020828463946CDF81080FEF75EF836
:1024D00045F2A850CDE9010628463946CDE9036802
:1024E000FEF754F842F21200CDE9010620463946C3
:1024F000CDE90368FEF74AF840F2411001A981E8EE
:10250000410820463946CDF81080FEF73FF840F6E6
:102510000004C4F2010420463946CDE9016BCDF830
:102520000CB0FEF733F8F020CDE90106204639461D
:10253000CDE90368FEF72AF84DF20340CDE9010624
:1025400050463946CDE90368FEF720F8042001A97A
:1025500081E8410850463946CDF81080FEF716F85C
:102560004FF4A060CDE9010B48463946CDF80CB0D8
:10257000FEF70CF84FF4A04001A981E84108484655
:102580003946CDF81080FEF701F84FF4106001A92C
:1025900081E8410820463946CDF81080FDF7F6FF66
:1025A00005B0BDE8F08F000080B540F21C0045F298
:1025B0000041C2F20000C4F2000148F2A062002310
:1025C0004FF4804CC0F2010280E80E00C0E9033CE9
:1025D000C0E90533C0E90733FEF7E6F8002808BF75
:1025E00080BDBDE88040FDF775BF000080B582B0BA
:1025F00040F2800041F200020021C2F20000C4F269
:10260000000241F61F4341F2883CCDE90011C0E9C8
:102610000023C0E9021C8161FFF76EF9002818BF92
:10262000FDF758FF40F28000C2F200006946FFF754
:1026300017F9002818BFFDF74DFF02B080BD00005C
:1026400080B582B040F2C80041F200420021C2F2DF
:102650000000C4F2000241F61F4342F20F7CCDE9B4
:102660000011C0E90023C0E9021C8161FFF744F9B1
:10267000002818BFFDF72EFF40F2C800C2F200008C
:102680006946FFF7EDF8002818BFFDF723FF02B0F9
:1026900080BD000080B540F2101043F60001C2F288
:1026A0000000C4F2010100234FF00C0C4FF4E132A2
:1026B00080E80E00C0E90333C0E905C3C361FFF73A
:1026C000FBFA002808BF80BDBDE88040FDF702BFCF
:1026D00080B540F2581044F20041C2F20000C4F24A
:1026E000000100234FF00C0C4FF4E13280E80E00A3
:1026F000C0E90333C0E905C3C361FFF7DDFA002871
:1027000008BF80BDBDE88040FDF7E4BEFEE70000E5
:102710002DE9F04140F2A010C2F20000017840F231
:10272000A410C2F20000016040F27000C2F200008A
:10273000007840F27402C2F20002106040F2B1125E
:10274000C2F20002137840F2B412C2F20002136027
:10275000DFB2CD225743FF0A07EB8706A3EB460300
:1027600040F2BC18DBB2C2F20008C8F800301A23ED
:1027700007FB03F6360A46EA8606A7EB460740F251
:10278000B815FFB2C2F200052F60CFB25743FF0A5F
:1027900007EB8706A1EB460140F2AC16C9B2C2F2C4
:1027A0000006316007FB03F1090A41EA8101A7EB4A
:1027B000410140F2A817C9B2C2F200073960C1B2A4
:1027C0005143C90A01EB8102A0EB420040F27C04B4
:1027D000C0B2C2F20004206001FB03F0000A40EA2C
:1027E0008000A1EB4000C1B240F27800C2F20000CC
:1027F0000160012000F01AF82168022000F016F8AC
:102800003968052000F012F83168062000F00EF853
:102810002968042000F00AF8D8F800100320BDE869
:10282000F04100F003B80000FEE70000B0B5013849
:10283000052800F27F80DFE800F0031B354D677F3D
:10284000092900F27780DFE811F00B0091009F006A
:10285000A700B900C100CF00D700F300FB0000BF04
:1028600041F60004C4F2010420460421002284E061
:10287000092900F25F80DFE811F00B00FF000F0173
:1028800019012F0139014901530171017B0100BF79
:1028900041F60005C4F20105A5F58054204610213B
:1028A0000022F2E0092945D8DFE811F00A00800192
:1028B00090019A01B001BA01CA01D401F201FC01F0
:1028C00041F60004C4F2010420464FF48071002256
:1028D00074E100BF09292DD8DFE811F00A000202D7
:1028E00014022002380244025602620282028E0260
:1028F00041F60000C4F20100A0F5406420464FF408
:1029000080610022F6E100BF092913D8DFE811F049
:102910000A009402A202AA02C002C802D602DE0283
:10292000FC02040341F60004C4F20104204608211D
:10293000002288E2B0BD00BF092988BFB0BDDFE832
:1029400011F00B0009031903230339034303530355
:102950005D037B03850300BF41F60004C4F201045C
:10296000A4F58055284620210022FCE241F600040F
:10297000C4F20104204604210122FDF709FF20468C
:102980001021002214E000BF41F60004C4F201044B
:1029900020460421002206E041F60004C4F20104AE
:1029A000204604210122FDF7F3FE204610210122DA
:1029B000FDF7EEFE2046402100222EE041F6000405
:1029C000C4F2010420460421002206E041F600047E
:1029D000C4F20104204604210122FDF7D9FE20465D
:1029E0001021002214E000BF41F60004C4F20104EB
:1029F00020460421002206E041F60004C4F201044E
:102A0000204604210122FDF7C3FE204610210122A9
:102A1000FDF7BEFE204640210122FDF7B9FEA4F5D8
:102A2000006001210022BDE8B040FDF7B1BE00BF4B
:102A300041F60004C4F2010420460421002206E00D
:102A400041F60004C4F20104204604210122FDF7EE
:102A50009FFE204610210022FDF79AFE20464021CD
:102A60000022FDF795FEA4F5006001210122BDE8DA
:102A7000B040FDF78DBE00BF41F60005C4F2010570
:102A8000A5F58054204610210122FDF781FE204645
:102A90004021002218E000BF41F60005C4F2010504
:102AA000A5F5805420461021002208E041F60005DB
:102AB000C4F20105A5F58054204610210122FDF73E
:102AC00067FE204640210122FDF762FEA5F5006069
:102AD0001021002238E000BF41F60005C4F20105D4
:102AE000A5F5805420461021002208E041F600059B
:102AF000C4F20105A5F58054204610210122FDF7FE
:102B000047FE20464021002218E000BF41F60005A4
:102B1000C4F20105A5F5805420461021002208E0EA
:102B200041F60005C4F20105A5F5805420461021A8
:102B30000122FDF72DFE204640210122FDF728FE4F
:102B4000A5F5006010210122FDF722FEA5F54060E9
:102B500001210022BDE8B040FDF71ABE41F6000594
:102B6000C4F20105A5F5805420461021002208E09A
:102B700041F60005C4F20105A5F580542046102158
:102B80000122FDF705FE204640210022FDF700FE50
:102B9000A5F5006010210022FDF7FAFDA5F54060C3
:102BA00001210122BDE8B040FDF7F2BD41F600046D
:102BB000C4F2010420464FF480710122FDF7E8FDC4
:102BC00020464FF48061002218E000BF41F6000467
:102BD000C4F2010420464FF48071002208E000BFD7
:102BE00041F60004C4F2010420464FF48071012232
:102BF000FDF7CEFD20464FF480610122FDF7C8FDB0
:102C000020464FF48051002238E000BF41F6000416
:102C1000C4F2010420464FF48071002208E000BF96
:102C200041F60004C4F2010420464FF480710122F1
:102C3000FDF7AEFD20464FF48061002218E000BF92
:102C400041F60004C4F2010420464FF480710022D2
:102C500008E000BF41F60004C4F2010420464FF42E
:102C600080710122FDF794FD20464FF4806101221E
:102C7000FDF78EFD20464FF480510122FDF788FDBF
:102C800020464FF480410022BDE8B040FDF780BDF2
:102C900041F60004C4F2010420464FF48071002282
:102CA00008E000BF41F60004C4F2010420464FF4DE
:102CB00080710122FDF76CFD20464FF480610022F7
:102CC000FDF766FD20464FF480510022FDF760FDC0
:102CD00020464FF480410122BDE8B040FDF758BDC9
:102CE00041F60000C4F20100A0F5406420464FF414
:102CF00080610122FDF74CFD20464FF480510022F7
:102D00001CE000BF41F60000C4F20100A0F54064E1
:102D100020464FF4806100220AE000BF41F6000027
:102D2000C4F20100A0F5406420464FF48061012206
:102D3000FDF72EFD20464FF480510122FDF728FDBE
:102D400020464FF48041002240E000BF41F60000E1
:102D5000C4F20100A0F5406420464FF480610022D7
:102D60000AE000BF41F60000C4F20100A0F5406493
:102D700020464FF480610122FDF70AFD20464FF402
:102D8000805100221CE000BF41F60000C4F20100A7
:102D9000A0F5406420464FF4806100220AE000BFA5
:102DA00041F60000C4F20100A0F5406420464FF453
:102DB00080610122FDF7ECFC20464FF48051012296
:102DC000FDF7E6FC20464FF480410122FDF7E0FCD0
:102DD00020464FF400410022BDE8B040FDF7D8BCCA
:102DE00041F60000C4F20100A0F5406420464FF413
:102DF000806100220AE000BF41F60000C4F2010039
:102E0000A0F5406420464FF480610122FDF7C0FC2C
:102E100020464FF480510022FDF7BAFC20464FF4C3
:102E200080410022FDF7B4FC20464FF4004101220E
:102E3000BDE8B040FDF7ACBC41F60004C4F20104AB
:102E4000204608210122FDF7A3FC20462021002274
:102E500014E000BF41F60004C4F20104204608213A
:102E6000002206E041F60004C4F2010420460821D5
:102E70000122FDF78DFC204620210122FDF788FC70
:102E8000A4F5006420464FF40051002232E000BF58
:102E900041F60004C4F2010420460821002206E0A5
:102EA00041F60004C4F20104204608210122FDF786
:102EB0006FFC20462021002214E000BF41F60004F0
:102EC000C4F2010420460821002206E041F6000475
:102ED000C4F20104204608210122FDF759FC2046D6
:102EE00020210122FDF754FCA4F5006420464FF494
:102EF00000510122FDF74CFC204602210022BDE8D2
:102F0000B040FDF745BC00BF41F60004C4F2010427
:102F100020460821002206E041F60004C4F2010424
:102F2000204608210122FDF733FC20462021002203
:102F3000FDF72EFCA4F5006420464FF4005100225A
:102F4000FDF726FC204602210122BDE8B040FDF736
:102F50001FBC00BF41F60004C4F20104A4F5805573
:102F6000284620210122FDF713FC2846802100225B
:102F700018E000BF41F60004C4F20104A4F5805536
:102F800028462021002208E041F60004C4F2010492
:102F9000A4F58055284620210122FDF7F9FB28469B
:102FA00080210122FDF7F4FBA4F5406002210022FC
:102FB00038E000BF41F60004C4F20104A4F58055D6
:102FC00028462021002208E041F60004C4F2010452
:102FD000A4F58055284620210122FDF7D9FB28467B
:102FE0008021002218E000BF41F60004C4F2010471
:102FF000A4F5805528462021002208E041F600046F
:10300000C4F20104A4F58055284620210122FDF7D1
:10301000BFFB284680210122FDF7BAFBA4F54060E2
:1030200002210122FDF7B4FB204680210022BDE8E9
:10303000B040FDF7ADBB00BF41F60004C4F201048F
:10304000A4F5805528462021002208E041F600041E
:10305000C4F20104A4F58055284620210122FDF781
:1030600097FB284680210022FDF792FBA4F54060E3
:1030700002210022FDF78CFB204680210122BDE8C1
:10308000B040FDF785BB00002DE9F04F85B040F260
:103090001C0400254FF480760127C2F200040DF1D4
:1030A000120B0DF113084FF0000900BF09F1B00039
:1030B0008DF8100004A8CDE90007204678210022F1
:1030C00001230296FDF712FF0DF11100CDE9000773
:1030D00020467821002201238DF811500296FDF739
:1030E00005FF10208DF812002046782100220123D0
:1030F000CDE900B70296FDF7F9FE4FF0000A00BFD8
:1031000020467821402201238DF81350CDE9008715
:103110000296FDF7EBFE0AF101004FFA80FABAF1D0
:10312000FF3FEDDCB9F1070F09F10109BED305B08E
:10313000BDE8F08F70B584B08D2040F21C048DF88E
:103140000D0001260DF10D00C2F200044FF4807550
:10315000CDE9000620467821002201230295FDF7E3
:10316000C5FE14208DF80E000DF10E00CDE900060D
:1031700020467821002201230295FDF7B7FEAF20FB
:103180008DF80F000DF10F00CDE9000620467821E3
:10319000002201230295FDF7A9FE04B070BD0000D6
:1031A00080B54FF4FA70FDF7DDF9BDE8804000F01E
:1031B000EFB9000080B5FFF7F3FFFFF7BBFF00F0AA
:1031C00005F8BDE88040FFF75FBF00002DE9F04F34
:1031D00085B040F21C0400254FF480760127C2F22E
:1031E00000040DF1120B0DF113084FF0000900BFA0
:1031F00009F1B0008DF8100004A8CDE900072046C1
:103200007821002201230296FDF770FE0DF11100D6
:10321000CDE9000720467821002201238DF81150C6
:103220000296FDF763FE10208DF8120020467821EB
:1032300000220123CDE900B70296FDF757FE4FF0BB
:10324000000A00BF20467821402201238DF8135048
:10325000CDE900870296FDF749FE0AF101004FFA19
:1032600080FABAF1FF3FEDDCB9F1070F09F101096E
:10327000BED305B0BDE8F08F704700007047000076
:10328000B0B501200021FFF7D1FA02200021FFF79D
:10329000CDFA03200021FFF7C9FA04200021FFF72F
:1032A000C5FA05200021FFF7C1FA06200021FFF72B
:1032B000BDFA40F2C015C2F20005286840F21004C1
:1032C000C2F20004206000BFFDF768FA2168401ACE
:1032D000B0F5967FF8D301200121FFF7A7FA02206D
:1032E0000121FFF7A3FA03200121FFF79FFA042031
:1032F0000121FFF79BFA05200121FFF797FA06202D
:103300000121FFF793FA2868206000BFFDF746FA15
:103310002168401AB0F5967FF8D301200221FFF70B
:1033200085FA02200221FFF781FA03200221FFF72C
:103330007DFA04200221FFF779FA05200221FFF728
:1033400075FA06200221FFF771FA2868206000BF95
:10335000FDF724FA2168401AB0F5967FF8D30120D2
:103360000321FFF763FA02200321FFF75FFA03202E
:103370000321FFF75BFA04200321FFF757FA05202A
:103380000321FFF753FA06200321FFF74FFA2868BD
:10339000206000BFFDF702FA2168401AB0F5967F61
:1033A000F8D301200421FFF741FA02200421FFF79E
:1033B0003DFA03200421FFF739FA04200421FFF726
:1033C00035FA05200421FFF731FA06200421FFF722
:1033D0002DFA2868206000BFFDF7E0F92168401A47
:1033E000B0F5967FF8D301200521FFF71FFA0220E0
:1033F0000521FFF71BFA03200521FFF717FA042028
:103400000521FFF713FA05200521FFF70FFA062023
:103410000521FFF70BFA2868206000BFFDF7BEF911
:103420002168401AB0F5967FF8D301200621FFF7F6
:10343000FDF902200621FFF7F9F903200621FFF725
:10344000F5F904200621FFF7F1F905200621FFF721
:10345000EDF906200621FFF7E9F92868206000BF92
:10346000FDF79CF92168401AB0F5967FF8D301204A
:103470000721FFF7DBF902200721FFF7D7F9032027
:103480000721FFF7D3F904200721FFF7CFF9052023
:103490000721FFF7CBF906200721FFF7C7F92868B6
:1034A000206000BFFDF77AF92168401AB0F5967FD9
:1034B000F8D301200821FFF7B9F902200821FFF70E
:1034C000B5F903200821FFF7B1F904200821FFF71F
:1034D000ADF905200821FFF7A9F906200821FFF71B
:1034E000A5F92868206000BFFDF758F92168401A47
:1034F000B0F5967FF8D301200921FFF797F9022054
:103500000921FFF793F903200921FFF78FF9042020
:103510000921FFF78BF905200921FFF787F906201C
:103520000921FFF783F92868206000BFFDF736F90D
:103530002168401AB0F5967FF8D3B0BDFDF7B6BD4F
:103540007047000040F28000C2F20000FEF7E8BAC7
:1035500040F2C800C2F20000FEF7E2BA10B540F235
:10356000C804C2F200042046FEF7C6F92046FEF762
:1035700091FA40F28004C2F200042046FEF7BCF942
:103580002046BDE81040FEF785BA0000FEE70000C7
:103590002DE9F04784B040F21C04AE20C2F20004D2
:1035A0008DF80F004FF4807501260DF10F072046AE
:1035B000782100220123CDE9007602954FF0000A20
:1035C000FDF794FC20467821002201238DF80FA0FE
:1035D000CDE900760295FDF789FC10208DF80F00EB
:1035E0002046782100220123CDE900760295FDF7DF
:1035F0007DFC4FF0400920467821002201238DF800
:103600000F90CDE900760295FDF770FC81208DF8D2
:103610000F002046782100220123CDE90076029593
:10362000FDF764FCCF208DF80F00204678210022A2
:103630000123CDE900760295FDF758FCA1208DF815
:103640000F002046782100220123CDE90076029563
:10365000FDF74CFCC8208DF80F0020467821002291
:103660000123CDE900760295FDF740FC4FF0A60856
:1036700020467821002201238DF80F80CDE90076C5
:103680000295FDF733FCA8208DF80F002046782125
:1036900000220123CDE900760295FDF727FC3F20AB
:1036A0008DF80F002046782100220123CDE9007615
:1036B0000295FDF71BFCD3208DF80F0020467821E2
:1036C00000220123CDE900760295FDF70FFC20468C
:1036D0007821002201238DF80FA0CDE90076029514
:1036E000FDF704FCD5208DF80F002046782100223C
:1036F0000123CDE900760295FDF7F8FB80208DF8D7
:103700000F002046782100220123CDE900760295A2
:10371000FDF7ECFBD9208DF80F0020467821002220
:103720000123CDE900760295FDF7E0FBF1208DF84D
:103730000F002046782100220123CDE90076029572
:10374000FDF7D4FBDA208DF80F0020467821002207
:103750000123CDE900760295FDF7C8FB12208DF814
:103760000F002046782100220123CDE90076029542
:10377000FDF7BCFBDB208DF80F00204678210022EE
:103780000123CDE900760295FDF7B0FB20467821B4
:10379000002201238DF80F90CDE900760295FDF708
:1037A000A5FB20208DF80F00204678210022012360
:1037B000CDE900760295FDF799FB02208DF80F0008
:1037C0002046782100220123CDE900760295FDF7FD
:1037D0008DFB8D208DF80F002046782100220123DB
:1037E000CDE900760295FDF781FB14208DF80F00DE
:1037F0002046782100220123CDE900760295FDF7CD
:1038000075FBA4208DF80F002046782100220123AB
:10381000CDE900760295FDF769FB2046782100226C
:1038200001238DF80F80CDE900760295FDF75EFB50
:10383000FFF72AFCAF208DF80F00204678210022E8
:103840000123CDE900760295FDF750FB04B0BDE8F9
:10385000F087000090B0FDF737FC00240120CDE98F
:103860000B44CDE9094406900A904FF4E0104FF460
:10387000803102250F9006A8CDE90714CDE90D513E
:10388000FDF7D4FD20B1EFF3108072B6FEE700BF64
:103890000F20CDE901054FF48060CDE9040401A8B3
:1038A00002210394FDF7B8FC20B1EFF3108072B64B
:1038B000FEE700BFFEF78EFDFEF776FEFEF7EAFE9E
:1038C000FEF706FFFEF7BCFEFEF790FEFFF772FC68
:1038D000FFF744FE40F21C00C2F20000FCF7CCFDF2
:1038E000FFF7CEFC40F21004C2F20004FCF756FFD2
:1038F0002168401AB0F57A7FF8D9FCF74FFF2060B5
:10390000FCF7EEFDFEF704FFF0E702E008C8121F27
:1039100008C1002AFAD170477047002001E001C1B8
:10392000121F002AFBD170470000000000000000B9
:103930000102030406070809000000000102030455
:10394000010202030405060708090A0B0C0D0E0FFD
:10395000101000007839000800000020100000005E
:103960000A3900088839000810000020B805000056
:103970001A390008000000000100000010000000DB
:083980000024F4000000000027
:0400000508000131BD
:00000001FF
