:020000040800F2
:10000000B804002045010008791C000811170008F9
:10001000751C0008990100088D1C000800000000F4
:10002000000000000000000000000000811C00082B
:1000300079040008000000007D1C0008851C0008F1
:100040005F0100085F0100085F0100085F01000810
:100050005F0100085F0100085F0100085F01000800
:100060005F0100085F0100085F0100085F010008F0
:100070005F0100085F0100085F0100085F010008E0
:100080005F0100085F0100085F0100085F010008D0
:100090005F0100085F0100085F0100085F010008C0
:1000A0005F0100085F0100085F0100085F010008B0
:1000B0005F0100085F0100085F0100085F010008A0
:1000C0005F0100085F0100085F0100085F01000890
:1000D0005F0100085F0100085F0100085F01000880
:1000E0005F0100085F0100085F0100085F01000870
:1000F0005F0100085F0100085F0100085F01000860
:100100005F0100085F0100085F0100085F0100084F
:100110005F0100085F0100085F0100085F0100083F
:100120005F0100085F0100085F0100085F0100082F
:10013000DFF80CD000F018F800480047911C0008C8
:10014000B80400200648804706480047FEE7FEE75F
:10015000FEE7FEE7FEE7FEE7FEE7FEE7FEE7FEE777
:10016000891C0008310100081CB5094800900948A5
:1001700001900546009C06E0E06840F0010394E829
:10018000070098471034AC42F6D3FFF7D5FF0000C4
:10019000881D0008A81D0008FEE7000070B582B0A9
:1001A00040F21005C2F2000500264FF47A740DF1FA
:1001B0000502D021012328608DF80560009400F02D
:1001C00011FD286801AAD0210123009400F008FB4A
:1001D0009DF804000DF1060200F07F0128688DF8FB
:1001E0000710D02102238DF80660009400F0FAFC7D
:1001F00002B070BD80B582B0CD214143C90A01EB88
:100200008102A0EB420040EA011104208DF80600B3
:1002100040F21000C2F2000000688DF807104FF4A1
:100220007A7C0DF10602D0210223CDF800C000F047
:10023000D9FC02B080BD000080B582B0CD21414321
:10024000C90A01EB8102A0EB420040EA0111032040
:100250008DF8060040F21000C2F2000000688DF830
:1002600007104FF47A7C0DF10602D0210223CDF85D
:1002700000C000F0B7FC02B080BD000080B582B0C5
:1002800000F03F001A214143090A01EB8102A0EB73
:10029000420040EA011102208DF8060040F21000F1
:1002A000C2F2000000688DF807104FF47A7C0DF15F
:1002B0000602D0210223CDF800C000F093FC02B06A
:1002C00080BD000080B582B0CD214143C90A01EB59
:1002D0008102A0EB420040EA011101208DF80600E6
:1002E00040F21000C2F2000000688DF807104FF4D1
:1002F0007A7C0DF10602D0210223CDF800C000F077
:1003000071FC02B080BD000080B582B0CD214143B8
:10031000C90A01EB8102A0EB420040EA011105206D
:100320008DF8060040F21000C2F2000000688DF85F
:1003300007104FF47A7C0DF10602D0210223CDF88C
:1003400000C000F04FFC02B080BD0000F0B583B0EB
:1003500040F21007C2F200070446386800264FF446
:100360007A750DF10902D02101238DF809600095FD
:1003700000F038FC386802AAD0210123009500F073
:100380002FFA9DF80800CD2144EAD01000FB01F2BD
:10039000D20A02EB8202A0EB42006143F02202EAA1
:1003A000D111014338688DF80B100DF10A02D021EC
:1003B00002238DF80A60009500F014FC03B0F0BD34
:1003C00070B582B040F210050C460821C2F200055B
:1003D0008DF8041029688DF805004FF47A7601AA8B
:1003E0000846D0210223009600F0FCFB09208DF87E
:1003F000060028680DF10602D02102238DF807407F
:10040000009600F0EFFB02B070BD0000F0B583B0C5
:100410000446800841F27B41484340F21006470CF5
:100420001020C2F200068DF8080030684FF47A758B
:1004300002AAD02102238DF80970009500F0D2FBAA
:10044000642007FB1040CD22C1B25143C90A01EB21
:100450008102A0EB420040EA011106208DF80A005B
:1004600030688DF80B100DF10A02D021022300959F
:1004700000F0B8FB03B0F0BD70470000EFF3108050
:1004800072B600BFFEE700002DE9F04F82B00E68A3
:10049000002E00F0E980A0F1804241F6004540F2D4
:1004A0000043A2F58432C4F201050624C4F201031C
:1004B0004FEAB227A84208BF05244FF0000E4FF0C4
:1004C00001080F254FF0000A4FF0000B052F38BF31
:1004D0004FEAB224009408E00E680AF1010A36FAE5
:1004E0000AF20EF1040E00F0BF8008FA0AFC16EAC8
:1004F0000C09F1D04E684FF6FF72C1F2100296421D
:1005000012DC122E56D8DFE806F0350B4D49555552
:10051000555555555555555555555545510000BFDF
:10052000D1F80CB046E000BF4FF6FF72C1F22102D5
:1005300096420FDC0022C1F2110296421AD000222C
:10054000C1F21202964215D00022C1F22102964257
:1005500010D02FE00022C1F2220296420AD00022DF
:10056000C1F23102964205D00022C1F23202964217
:1005700020D100BF8A684AB1012A14BFC0F814C054
:10058000C0F810C04FF0080B14E000BF4FF0040B90
:1005900010E000BFCA6802F1040B0BE04FF0000B43
:1005A00008E000BFCA6802F1080B03E0CA6802F164
:1005B0000C0B00BF02467446B9F5807F24BF04329D
:1005C000203C166805FA04F726EA07070BFA04F63A
:1005D00037431760CA79D2067FF57EAF41F218071C
:1005E000C4F202073A684FF6084542F001023A6049
:1005F0003A68CFF6FF7502F001020192019A2AF0E3
:1006000003021A440F2457590EF00C06B440A743B6
:10061000009C04FA06F6374357514E6840F20C44EA
:10062000F2029A6854BF22EA090242EA0902C4F2BD
:1006300001049A602268B70254BF22EA090242EA22
:10064000090222605A68B70354BF22EA090242EA4B
:1006500009025A600F251A68F70354BF22EA0902FB
:1006600042EA09021A6037E702B0BDE8F08F0000E5
:1006700040F2B000C2F2000000687047002804BFDA
:1006800001207047F0B581B0044690F83D0028B9CC
:10069000002084F83C00204600F092FB242084F8DF
:1006A0003D002068016821F001010160016841F40A
:1006B00000410160016821F40041016000F038FD53
:1006C000636848F2A16CC0F2010C40F60011C0F260
:1006D0003D0163453CBF48F28041C0F21E018842A3
:1006E00002D2012001B0F0BD4DF68361C4F21B318E
:1006F000A0FB01122168970CD1F804E04FF4967624
:100700002EF03F0545EA92454D60774348F638168E
:100710000D6AC0F24106A7FB067625F03F07634548
:1007200038BF960C721C3A430A62CA6948F2A06646
:100730004CF6FF77C0F20106B34222EA07020BD85B
:1007400001385B00B0FBF3F001306FF31F30042879
:1007500098BF04201BE000BFA768013857B11927D4
:100760007B43B0FBF3F001306FF31F3070B100F545
:10077000804007E003EB4303B0FBF3F001306FF37D
:100780001F3018B100F5004001E000BF0120104308
:10079000C8610868D4E9072320F0C000104318435B
:1007A0000860886848F2FF3204F10C0790438CCF50
:1007B00018431043A6698860C86820F0FF003843DA
:1007C0003043C860086840F0010008600020202124
:1007D000206484F83D10206384F83E0001B0F0BD31
:1007E0002DE9F04784B0044600201F46164689468E
:1007F0000290FFF73DFF94F83D10202924D10546D3
:10080000206800BF816989071AD5FFF731FF411BB6
:1008100020681A29F6D381698907F3D500202021A1
:10082000206384F83D1084F83E00216C41F02001E3
:10083000216484F83C00022004B0BDE8F08700BFCA
:1008400094F83C10012903D1022004B0BDE8F087E0
:10085000012184F83C100168C90703D1016841F007
:10086000010101600168DDF8308021F40061016060
:10087000222184F83D10102184F83E1000212164CB
:1008800066626785618D0227C0F201072185A7F1A5
:100890000211E162E16A026811F5803F42F4806270
:1008A000026018BF01293DD1016841F480710160E7
:1008B00020464FF0011100224346009500F088FFCA
:1008C00050B120680068C00544BF4FF40070206438
:1008D000012004B0BDE8F0872069B0F5804F27D132
:1008E00049F00100C0B221684246086120463946FD
:1008F0002B4601F053F80028EAD1208D022861D060
:10090000012849D0002840F073800020039020681F
:1009100041690391816903910399016841F4007170
:10092000016071E00829BFD0216B1129BCD0BFE75D
:10093000062000EAD916206806F1F0010161B91D10
:10094000204642462B4601F029F80028C0D12068F5
:100950005FFA89F101612046394642462B4601F093
:100960001DF80028B4D100200390206800224169BE
:1009700043460391816903910399016841F48071B1
:10098000016020464FF00111009500F021FF002882
:1009900097D146F0F100A6E72068016821F4806154
:1009A0000160EFF3108072B6002003902068416967
:1009B0000391816903910399016841F40071016019
:1009C00062B621E02068016841F400610160EFF344
:1009D000108072B6002003902068416903918169FC
:1009E00003910399016821F48061016062B60BE014
:1009F0002068016841F48061016000210391416930
:100A00000391806903900398208D002800F0CC802A
:100A100040F208094BF2895A0237C2F20009C1F2CA
:100A2000F84A23260EE000BF10690870606A218D25
:100A300001306062481E2085618D013961850104A5
:100A400000F0B28080B203280CD802282CD00128F4
:100A50004AD1204641462A4601F00CF8002800F011
:100A60009F8035E7204641462A4601F003F80028DA
:100A70007FF42EAF2068616A00690870606A22689E
:100A8000411C208D616201382085638D013B6385A7
:100A900053695B07D3D580B20328C5D1106820F411
:100AA00080601060C0E700BF204639460022434600
:100AB000009500F08DFE00287FF40AAFEFF3108060
:100AC00072B62068616A026842F4007202600069CE
:100AD0000870606A218D01306062481E2085608D3B
:100AE0000138608562B65BE0204639460022434605
:100AF000009500F06DFE00287FF4EAAE20680168E2
:100B000021F480610160EFF3108072B62068616AA1
:100B100000690870606A218D0130013960622185A9
:100B2000618D01396185D9F80010C908A1FB0A124D
:100B3000110A714302910299013902910299002927
:100B40003ED021684A6952071AD4029901390291AC
:100B50000299A9B321684A69520711D4029901394F
:100B60000291029961B321684A69520708D4029937
:100B700001390291029919B321684A695207DAD5FD
:100B80000A6842F400720A6009690170606A218D86
:100B900001306062481E2085608D0138608562B634
:100BA0002068616A006940E7202084F83D00002049
:100BB00084F83E0084F83C0004B0BDE8F08700BF34
:100BC00000202021206384F83D1084F83E00216C31
:100BD00041F02001216462B684F83C00012004B099
:100BE000BDE8F0872DE9F04383B01E4617468946DD
:100BF0000446FFF73DFD94F83D10202924D1054619
:100C0000206800BF816989071AD5FFF731FD411BB4
:100C100020681A29F6D381698907F3D5002020219D
:100C2000206384F83D1084F83E00216C41F02001DF
:100C3000216484F83C00022003B0BDE8F08300BFCB
:100C400094F83C10012903D1022003B0BDE8F083E1
:100C5000012184F83C100168C90703D1016841F003
:100C600001010160016840F2020821F400610160A5
:100C7000212184F83D10102184F83E1000212164C8
:100C800067626685618DC0F201082185A8F10211B5
:100C9000E162E16A0A9E11F5803F18BF01291DD16A
:100CA000016841F48071016020464FF0011100227B
:100CB0003346009500F08CFD50B120680068C005F7
:100CC00044BF4FF400702064012003B0BDE8F083FE
:100CD0002069B0F5804F07D1FE2015E00829DFD04C
:100CE000216B1229DCD0DFE7062000EAD910216849
:100CF000F030086108F10601204632462B4600F02C
:100D00004DFE0028E0D1FF20216800EA09000861BB
:100D10002046414632462B4600F040FE0028D3D103
:100D20000020029020684169029180690290029837
:100D300006E000BF204631462A4600F0EBFC18BB17
:100D4000208D68B3204631462A4600F0DBFED8B934
:100D5000606A2168024612F8013B0B616262628D93
:100D6000013A6285228D531E23854F697F07E1D5A5
:100D70001B04DFD0437802300B616062608D013864
:100D80006085901E2085D5E7206C04289CD12068C2
:100D9000016841F400710160012003B0BDE8F083F7
:100DA0002068016841F400710160202084F83D0052
:100DB000002084F83E0084F83C0003B0BDE8F083D6
:100DC00010B586B0016845F20040C4F200008142CF
:100DD0004FF00001CDE90411CDE9021102D006B0B7
:100DE00010BD00BF41F21804C4F20204216800F5EE
:100DF000384041F008012160216801F008010191AB
:100E00000199C0210291122103910321059102A9A8
:100E1000FFF73AFB606840F400106060606800F41F
:100E200000100190019806B010BD000040F20000D3
:100E300040F2B001C2F20000C2F2000100780A687C
:100E4000104408607047000080B542F20000C4F210
:100E50000200016841F010010160032000F07AF8FF
:100E60000F2000F005F800F027F8002080BD0000FA
:100E700070B540F20006C2F2000640F20801327876
:100E8000C2F200014FF47A730968B3FBF2F2044630
:100E9000B1FBF2F1084600F073FB0F2C4FF0010597
:100EA00008D838B94FF0FF3021460022002500F065
:100EB00025F87460284670BD82B041F21800C4F273
:100EC00002000168022241F001010160016801F0A5
:100ED000010101910199416841F0805141604068F0
:100EE00000F08050009000980420C4F201000168D6
:100EF00062F31A61016002B07047000010B54EF64F
:100F00000C5CCEF2000CDCF80030C3F3022E8EF045
:100F10000704042C28BF0424BEF103034FF0FF3E56
:100F20000EFA04F438BF0023A14399400EFA03F3EC
:100F30009A43114300F00F0200F160430901043AA3
:100F400003F564436244002848BF02F10C031970A2
:100F500010BD00004EF60C51CEF200010A684FF6AB
:100F6000FF031A4060F30A2242F0806040F0FD70F7
:100F700008607047002804BF012070472DE9F04346
:100F800081B042F20008C4F202080446D8F800001A
:100F90000D4600F0070088420CD2D8F8000020F07F
:100FA00007002843C8F80000D8F8000000F0070048
:100FB000A8426CD1206841F204098107C4F20209F9
:100FC00017D5410705D5D9F8001041F4E061C9F8FB
:100FD0000010010705D5D9F8001041F46051C9F897
:100FE0000010D9F80010A26821F0F0011143C9F8EF
:100FF0000010C00742D1D8F8000000F00700A84256
:101000000CD9D8F8000020F007002843C8F80000E9
:10101000D8F8000000F00700A84238D12068410746
:1010200007D5D9F80010E26821F4E0611143C9F84E
:101030000010000708D5D9F80000216920F460509D
:1010400040EAC100C9F80000D9F8002002F00C0005
:10105000082841F20020C0F27A004DD141F67653C3
:10106000C2F38341C0F60003595CD20338D440F682
:101070000010C0F23D0048433EE000BF606859F8F0
:10108000041C022808D0012826D1890306D4012097
:1010900001B0BDE8F08300BF8901F8D5D9F8001090
:1010A00021F003010843C9F80000FFF7E1FA064602
:1010B00041F28837D9F80000616800F00C00B0EB0D
:1010C000810F98D0FFF7D4FA801BB842F2D90320E1
:1010D00001B0BDE8F08300BF8907D8D5DEE700BFC7
:1010E000D9F8002041F67453C2F34042C0F6000321
:1010F0009A5C4843B0FBF2F0D9F8001041F65C521C
:10110000C1F30311C0F60002515C40F2080220FA5C
:1011100001F140F20400C2F200000068C2F20002D5
:101120001160FFF7A5FE002001B0BDE8F0830000CC
:1011300040F2080041F20401C2F20000C4F20201D0
:101140000068096841F66C52C1F30221C0F6000242
:10115000515CC8407047000040F2080041F20401B1
:10116000C2F20000C4F202010068096841F66C5244
:10117000C1F3C221C0F60002515CC84070470000B4
:10118000002804BF012070472DE9F04182B00446D9
:10119000007841F20006C007C4F202060CD0706865
:1011A00000F00C00042840F081803068800303D5F3
:1011B0006068002800F04681207880071BD57068A1
:1011C00010F00C0F09D0706800F00C00082840F0F7
:1011D00087807068C00300F183803068800703D582
:1011E0002069012840F02E813068616920F0F80004
:1011F00040EAC10030602078000713D4207840070F
:101200002CD4E569002D00F01881706800F00C0006
:10121000082840F0A780012D40F00481012002B091
:10122000BDE8F081A069002800F084800020C4F2AD
:1012300042200121C0F88014FFF71AFA054600BFCA
:10124000706A800700F1B280FFF712FA401B022893
:10125000F6D9032002B0BDE8F08100BFF0695FEA73
:10126000C00808D4F06940F08050F061F06900F0E7
:1012700080500090009847F20007C4F200073868D9
:10128000C00549D4386840F480703860FFF7F0F941
:10129000054600BF3868C0053ED4FFF7E9F9401B9A
:1012A0006428F7D9032002B0BDE8F081706800F02F
:1012B0000C00082803D17068C0033FF576AF616861
:1012C0003068002900F00C81B1F5A02F00F00081FA
:1012D000B1F5803F40F01A8140F480301CE100BF3E
:1012E0002069002840F20000C4F2422000F088800B
:1012F00001210160FFF7BCF9054600BF3068800797
:101300003FF572AFFFF7B4F9401B0228F6D903206E
:1013100002B0BDE8F08100BFE168306A002900F04A
:101320009D80052900F09280012940F0AF8040F0B7
:101330000100B1E00020C4F242200021C0F8801476
:10134000FFF796F9054600BF706A80077FF556AF34
:10135000FFF78EF9401B0228F6D9032002B0BDE842
:10136000F08100BF0027C4F2422700203866FFF753
:101370007FF9022D05460DD13068800140F1DE80F5
:10138000FFF776F9401B02284FF00300F4D902B0B2
:10139000BDE8F081306880014FD5FFF769F9401B47
:1013A00002284FF00300F5D9F1E700BF40F2080032
:1013B000C2F20000006844F6D351C1F26201A0FB02
:1013C0000101480A019000BF00BF0198411E00289A
:1013D00001913FF413AF00BF0198411E0028019115
:1013E0003FF40CAF00BF0198411E002801913FF46B
:1013F00005AF00BF0198411E00280191E4D1FDE630
:1014000000210160FFF734F9054600BF306880070E
:101410007FF5F1AEFFF72CF9401B02284FF00300D7
:10142000F4D9B4E77068216A00F480328A4209D1A5
:10143000616A00F47010884204D1002002B0BDE857
:10144000F08100BF012002B0BDE8F08140F004004F
:101450003062306A40F001001EE000BF20F0010061
:101460003062306A20F004003062FFF701F905466F
:1014700041F28837306A800720D5FFF7F9F8401B22
:10148000B8424FF00300F5D981E700BF20F001001A
:101490003062306A20F004003062FFF7E9F8054658
:1014A00041F28837306A800708D4FFF7E1F8401B23
:1014B000B842F7D9032002B0BDE8F081B8F1000FBF
:1014C0003FF59FAEF06920F08050F06199E600BFD3
:1014D00040F480203060306840F480301CE000BF71
:1014E00020F480303060306820F480203060FFF7D6
:1014F000BFF80546306880037FF55EAEFFF7B8F8A9
:10150000401B64284FF00300F4D940E720F48030FA
:101510003060306820F480203060FFF7A9F805467D
:10152000306880033FF548AEFFF7A2F8401B6428FF
:10153000F6D9032002B0BDE8F08100BF206AB0F503
:10154000803F05D17168A26821F4003111437160B8
:101550007168626A21F474111143084370600120BC
:101560003866FFF785F80446306880013FF565AFBF
:10157000FFF77EF8001B02284FF00300F4D906E7BE
:10158000411E0020B0EB116F1CBF012070474EF2CE
:101590001002CEF2000251604EF62351CEF200014D
:1015A000F0230B700721906011607047002804BF82
:1015B0000120704710B5044690F8410028B900207A
:1015C00084F84000204600F063F8242084F84100AD
:1015D0002068D4E90212C36823F40053C36003698E
:1015E00023F440531A430261D4E904231143C2682F
:1015F000194341F20C639A431143C1604169A269E6
:1016000021F44071114343F60002C4F201029042FA
:10161000416103D0FFF78CFD02E000BFFFF79CFDA6
:10162000D4E90023192148439900B0FBF1F048F2B6
:101630001F5CC5F2EB1CA0FB0C314FF69C734909F3
:10164000C0F6FF7301FB0300322303EB0010A0FB85
:101650000C03F02000EA531000EB0110C3F3431118
:10166000084490601069202120F490401061506976
:1016700020F02A005061D06840F40050D060002073
:10168000606484F8411084F84210606310BD00006B
:1016900070B586B040F60004C4F20104006804F599
:1016A0004051002688420596CDE90366029601D096
:1016B00006B070BD41F21800C4F20200016802AD2C
:1016C00041F480410160016801F480410191019978
:1016D000016841F0040101600068294600F004003F
:1016E000019001984FF400700290022003900320B3
:1016F00005902046FEF7C8FE4FF48060CDE9020653
:10170000204629460496FEF7BFFE06B070BD0000D5
:10171000FEE7000070B50368044653F8140F400755
:1017200011D40E46481C29D086BB00BF186840055E
:1017300027D4FEF79DFF236853F8140F400737D5D1
:1017400018684007F2D5002070BD00BF1868400738
:10175000F9D41868400514D418684007F3D4186801
:1017600040050ED418684007EDD41868400508D429
:10177000186840074FF0000048BF70BD186840056A
:10178000E4D56FF480601860042012E0154603E091
:1017900053F8140F4007D6D418684005F1D4FEF76B
:1017A00067FF401B2368B042F2D958694007EFD465
:1017B000202000212022216384F83D2084F83E105F
:1017C000226C10432064012084F83C1070BD00009E
:1017D0002DE9F041054600681E46144601F47F02DB
:1017E00001338FB242D0DDF81880B2F5803F40F06F
:1017F000878040693840C01BB0FA80F04009A042A1
:1018000040F0C8804EB924E040693840C01BB0FAAF
:1018100080F04009A04240F0BD80FEF729FFA0EB18
:1018200008012868B142EFD941693940C91BB1FAB2
:1018300081F14909A142E7D19BE000BF40693840EE
:10184000C01BB0FA80F04009A0424FF0000040F009
:10185000A280FEF70DFF286841693940C91BB1FA23
:1018600081F14909A142E9D183E000BFB2F5803F8F
:1018700024D100BF41693940C91BB1FA81F149093E
:10188000A14240F0878041693940C91BB1FA81F11A
:101890004909A14240F07E8041693940C91BB1FA33
:1018A00081F14909A14275D141693940C91BB1FA99
:1018B00081F14909A142DDD06CE000BF8169394066
:1018C000C91BB1FA81F14909A14263D1816939404B
:1018D000C91BB1FA81F14909A1425BD18169394043
:1018E000C91BB1FA81F14909A14253D1816939403B
:1018F000C91BB1FA81F14909A142DFD04AE000BF1A
:1019000080693840C01BB0FA80F04009A04241D144
:1019100046B923E080693840C01BB0FA80F0400926
:10192000A04237D1FEF7A4FEA0EB08012868B1421F
:10193000F0D981693940C91BB1FA81F14909A14245
:10194000E8D116E080693840C01BB0FA80F0400949
:10195000A0424FF0000018BFBDE8F081FEF788FEFE
:10196000286881693940C91BB1FA81F14909A1424E
:10197000E8D100202021286385F83D1085F83E003D
:10198000296C41F02001296485F83C000120BDE864
:10199000F08100BF0020BDE8F0810000F0B581B00B
:1019A000044600681D4643698FB203EA0701B94245
:1019B00002D1002001B0F0BD4169164601323CD091
:1019C000490512D47EB300BFFEF752FE411B2068CA
:1019D000B14203D941693940B9422BD141693940FB
:1019E000B942E6D041694905EED5016841F400717C
:1019F00001606FF480614161042000212022216395
:101A000084F83D2084F83E10226C1043206484F852
:101A10003C10012001B0F0BD41693940B942C8D045
:101A200041694905E1D4FEF723FE20684169394048
:101A3000B942F1D02020E0E741694905D5D4416998
:101A40003940B942B5D041694905CED441693940E0
:101A5000B942AED041694905C7D441693940B9425C
:101A6000A7D041694905C0D441693940B942E3D1A1
:101A70009FE7000070B504460068154650F8143F13
:101A80005A063DD40E4629B926E000BF50F8141F6F
:101A9000490635D40168C90621D4FEF7E9FD411B8A
:101AA0002068B142F2D941694906EFD400202021D3
:101AB000206384F83D1084F83E00206C40F0200044
:101AC00018E000BFFEF7D4FD206850F8141F490647
:101AD000ECD50168490613D40168C906F2D56FF048
:101AE0001001016000202021206384F83D1084F85B
:101AF0003E00206C2064002084F83C00012070BD72
:101B0000002070BD70B50368044653F8140F00063A
:101B100011D40E46481C29D086BB00BF186840056A
:101B200027D4FEF7A5FD236853F8140F000637D518
:101B300018680006F2D5002070BD00BF18680006C6
:101B4000F9D41868400514D418680006F3D418684E
:101B500040050ED418680006EDD41868400508D476
:101B6000186800064FF0000048BF70BD18684005B7
:101B7000E4D56FF480601860042012E0154603E09D
:101B800053F8140F0006D6D418684005F1D4FEF7B8
:101B90006FFD401B2368B042F2D958690006EFD4AC
:101BA000202000212022216384F83D2084F83E106B
:101BB000226C10432064012084F83C1070BD0000AA
:101BC00082B041F21800C4F20200016841F0040141
:101BD0000160016801F0040101910199016841F07F
:101BE00008010160006800F008000090009802B051
:101BF0007047000080B540F2140045F20041C2F287
:101C00000000C4F2000148F2A06200234FF4804CAF
:101C1000C0F2010280E80E00C0E9033CC0E90533D0
:101C2000C0E90733FEF72AFD002808BF80BDBDE8E4
:101C30008040FEF723BC000080B540F2680043F608
:101C40000001C2F20000C4F2010100234FF00C0CAD
:101C50004FF4E13280E80E00C0E90333C0E905C368
:101C6000C361FFF7A3FC002808BF80BDBDE880402A
:101C7000FEF704BCFEE70000FEE70000704700002E
:101C800070470000FFF7D2B870470000FEE7000081
:101C900090B0FFF7D9F800240120CDE90B44CDE93D
:101CA000094406900A904FF4E0104FF48031022569
:101CB0000F9006A8CDE90714CDE90D51FFF760FAA2
:101CC00020B1EFF3108072B6FEE700BF0F20CDE920
:101CD00001054FF48060CDE9040401A802210394BA
:101CE000FFF748F920B1EFF3108072B6FEE700BFAE
:101CF000FFF766FFFFF77EFFFFF79EFF40F214003D
:101D0000C2F20000FEF74AFA08200021FEF758FB55
:101D10001D20FEF76FFA0820FEF7F6FA4FF4FD607B
:101D2000FEF774FB0220FEF787FA1420FEF7A6FAEE
:101D30002C20FEF7C7FA0020FEF708FBFEE702E0C2
:101D400008C8121F08C1002AFAD170477047002046
:101D500001E001C1121F002AFBD170470000000002
:101D6000000000000102030406070809000000004B
:101D700001020304010202030405060708090A0B15
:101D80000C0D0E0F10100000A81D00080000002010
:101D9000100000003E1D0008B81D000810000020C3
:101DA000A80400004E1D0008010000001000000003
:081DB0000024F4000000000013
:0400000508000131BD
:00000001FF
